:020000040800F2
:10000000F808002081010008814400086D3E0008C6
:1000100000000000000000000000000000000000E0
:100020000000000000000000000000000145000882
:10003000000000000000000085440008554500084D
:1000400093010008000000009301000893010008DC
:100050009301000893010008930100089301000830
:1000600000000000D1090008930100089301000876
:100070005907000805460008114600080000000066
:10008000214600080000000000000000D5450008DF
:1000900000000000E5450008F54500089301000850
:1000A0000000000093010008000000009301000818
:1000B00093010008000000000000000000000000A4
:1000C00000F002F800F04CF812A030C808382418EC
:1000D0002D18AC4201D100F043F80FCCA246AB463C
:1000E0000CA730CF2D1B083F3F197C427F1E544484
:1000F0002D090426F441641EAC4201D300F030F80F
:100100000126334200D0FB1A3343984754465D46DC
:10011000DFE700003C5100005C510000103A02D3C0
:1001200078C878C1FAD8520701D330C830C101D598
:1001300004680C6070470000704700000023002432
:1001400000250026103A01D378C1FBD8520700D30E
:1001500030C100D50B6070471FB51FBD10B510BD75
:1001600000F076FA1146FFF7F7FF04F0DBFE00F02F
:100170008EFA03B4FFF7F2FF03BC00F0E5FA0000CB
:100180000748804707480047FEE7FEE7FEE7FEE72F
:10019000FEE7FEE704480549054A064B70470000A4
:1001A000C5450008C1000008F8020020F80800203A
:1001B000F8040020F804002001E004C0091F04290D
:1001C000FBD28B0701D50280801CC90700D00270CA
:1001D000704700290BD0C30702D00270401C491E93
:1001E000022904D3830702D50280801C891EE3E71D
:1001F0000022EEE70022DFE7002203098B422CD326
:10020000030A8B4211D300239C464EE003460B4366
:100210003CD4002243088B4231D303098B421CD3C8
:10022000030A8B4201D394463FE0C3098B4201D3BA
:10023000CB01C01A524183098B4201D38B01C01AF2
:10024000524143098B4201D34B01C01A5241030969
:100250008B4201D30B01C01A5241C3088B4201D318
:10026000CB00C01A524183088B4201D38B00C01AC5
:10027000524143088B4201D34B00C01A5241411AEC
:1002800000D201465241104670475DE0CA0F00D0CF
:100290004942031000D3404253409C4600220309C8
:1002A0008B422DD3030A8B4212D38901FC2212BA4E
:1002B000030A8B420CD3890192118B4208D3890126
:1002C00092118B4204D389013AD0921100E089093E
:1002D000C3098B4201D3CB01C01A524183098B421F
:1002E00001D38B01C01A524143098B4201D34B0108
:1002F000C01A524103098B4201D30B01C01A52416B
:10030000C3088B4201D3CB00C01A524183088B42F1
:1003100001D38B00C01A5241D9D243088B4201D37A
:100320004B00C01A5241411A00D2014652411046B8
:1003300063465B1001D34042002B00D54942704711
:1003400063465B1000D3404201B50549002802DC3A
:10035000491C084000E00846C046C04602BD00BF38
:10036000FFFFFF7F70477047704700000121C905FC
:100370000123411842001B06D3185B0E0AD0C1109E
:100380000722D206891840075242D14201D55200B5
:1003900089187047090208D50146002A03D0C10F09
:1003A000C9070020704710467047420202D0002063
:1003B00002497047072109050143F4E70000F87F6F
:1003C000F0B5FF252D04C609C209FF2704462E40BB
:1003D0000137CB093E4348402A402B400746002ABC
:1003E0006BD0002B69D0AA4267D0AB4265D0002801
:1003F00000DA32460125ED0529432C43090220028B
:10040000090AD21A4B0C7F24E31A434C000A7C449D
:10041000E35C7D242404121914145B00A2188842A2
:1004200001D3521C00E0400049420C465C432411B9
:100430005C43DB016415E318040A5C43C502200D2C
:100440000C4644436419250A5D432303EC0C0D4616
:10045000654300030019EB184C42A34201D35B181B
:10046000401CD4052018002B07D05B00C91804D30A
:10047000401C002901D1400840003F2189048A42E4
:1004800009D3002A08DC1106090F04D0032149070B
:100490004018C00FC007F0BD0122410012068918A4
:1004A0007F2252069142F6D205214907C84201D562
:1004B0009010F0BDFF20C005F0BD002F00DA3246DD
:1004C0001648AA4207D2AB4205D21902090E17D02C
:1004D000F80FC007F0BDFF2563002D06AB42F9D829
:1004E0004900A942F6D8AB4201D1A942F2D0A942B3
:1004F00001D1002101E061004908D0050843F0BDA9
:100500001102090EFBD0FF200243D005F0BD0A46C0
:100510000146104654E70000B24D00000000C07FC5
:100520000102C21504D00123DB071943002A0ADBAC
:100530009E239A1A02D40846D0407047FF224100F9
:100540001206914201D900207047C017C04370477E
:100550001F22030C02D10F2200041CD0030E01D174
:100560000002083A030F01D10001121F830F01D1CD
:100570008000921E002801DB4000521ED205511857
:10058000021251181922904004D3491C002801D1AD
:100590004908490008467047C10FC90700D04042CA
:1005A000012292071143D3E701218907D0E7000018
:1005B000F8B5264C4E00069DA6420AD8A64201D1A7
:1005C000002806D15E00A64203D8A6420AD1002A1E
:1005D00008D00D242404254233D02946002000F001
:1005E0005EF8F8BD0C461C4311D4994207D0C81AD6
:1005F00002D3EFF30080F8BDEFF30080F8BD801A5E
:1006000002D3EFF30080F8BDEFF30080F8BD0924BA
:100610002407E5008B4207D0581A02D3EFF300807D
:1006200006E0EFF3008007E0101A03D3EFF3008039
:10063000A04303E0EFF30080A043284380F3008849
:10064000F8BD009500F042F8F8BD00000000E0FFA2
:10065000754600F045F8AE46050069465346C008A9
:10066000C000854618B020B5FFF794FD60BCB646C3
:1006700000260027C0C5C0C5C0C5C0C5C0C5C0C50F
:10068000C0C5C0C5403D490849008D46704710B5FA
:100690000446C046C0462046FFF76BFD10BDC802A9
:1006A00012D54803400F002804D0C803C0430121DD
:1006B00088407047EFF3008000010009032109071B
:1006C000084380F3008870470020704710B5002071
:1006D0000249029A00F008F810BD00000000F87FFF
:1006E000004870472000002010B50C461107090F84
:1006F000092904D00A290AD008290CD104E011469E
:100700000820FFF7CCFF06E0510606D501E05106B0
:1007100001D50120C007214610BDD10607D5010132
:100720000909CC084907000E0006044309E0410FFF
:1007300020024907000A0143200E00061D22D14174
:1007400001430846E7E7000001491820ABBEFEE779
:10075000260002007047000080B5024800F02AFC25
:1007600080BDC046B000002080B582B001900198E5
:10077000806A00900098806D5021084240D1FFE7C8
:100780000099886D01225202104388650098006824
:1007900003F01AFC00282FD0FFE70098807E002885
:1007A0002AD1FFE70098006800680007002822D5DA
:1007B000FFE70098006803F0FEFB00280FD1FFE779
:1007C0000098016848680C22904348600098806D4A
:1007D0000121084309028843009988650AE00099CD
:1007E000886D2022104388650099C86D012210434E
:1007F000C865FFE7FFE7FFE7009800F0CFFB10E0D8
:100800000098806DC006002804D5FFE7009800F02E
:10081000CDFB05E00098006D416B01988847FFE72C
:10082000FFE702B080BD80B582B001900198806A78
:1008300000900099886D4022104388650099C86D2A
:1008400004221043C865009800F0B0FB02B080BDE0
:1008500080B582B001900198806A0090009800F005
:10086000A1FB02B080BD000080B584B002900020E2
:1008700000900298006803F084FB002863D1FFE732
:10088000029800688068344908420DD0FFE7029959
:10089000886D102210438865029AD16D01200143B2
:1008A000D16503A9087052E00298006803F038FB94
:1008B0002A4803F04FFB0002002811D5FFE7284823
:1008C00000682849FFF798FC401C0090FFE700985B
:1008D000002804D0FFE70098401E0090F7E7FFE7EC
:1008E0000298407E01282DD0FFE701F003FB019024
:1008F000FFE7029800680068C007002821D1FFE7E1
:100900000298006803F03DFB002805D1FFE702983C
:10091000006803F005FBFFE701F0ECFA0199401ACB
:1009200003280DD3FFE70299886D102210438865D4
:10093000029AD16D01200143D16503A9087006E038
:10094000D7E7FFE7FFE703A900200870FFE703A848
:10095000007804B080BDC046170000800827014021
:1009600000000020400D030080B582B001F0C2FA03
:100970000190019813490968401A134988420BD322
:10098000FFE712480078002806D1FFE703F04EFA8F
:100990000E490120087012E001980A490968401ABE
:1009A0007D21C900884209D8FFE70848007800285F
:1009B00004D0FFE7054900200870FFE7FFE702B019
:1009C00080BDC046F0020020E9030000EC020020D8
:1009D00080B5024800F028FF80BDC0461401002009
:1009E00080B582B001900198007808381421FFF793
:1009F00003FC00900199086C03229043074A801879
:100A0000486401990648886400991C20014001202F
:100A100088400199C86402B080BDC0460008024009
:100A20008008024082B001900198007900900098FF
:100A300080000849401801990865019906484865F1
:100A40000098411E032001400120884001998865DB
:100A500002B07047FC0802404009024084B0039095
:100A60000291019200930399C86C896C48600398C5
:100A7000006D002805D0FFE70399886D496D486037
:100A8000FFE70398006C1C210840012282401049B6
:100A90000868104308600098039909684860039843
:100AA0008068102809D1FFE70198039909688860D8
:100AB000029803990968C86008E0029803990968D8
:100AC0008860019803990968C860FFE704B070471F
:100AD0000400024072B6FFE7FEE781B0009001B06B
:100AE000704781B0009001B0704781B0009001B0B4
:100AF000704781B0009001B0704781B0009001B0A4
:100B0000704781B0009001B07047000080B5A0B080
:100B10001E901D911CA9002008701A901E98006953
:100B20000121C907884206D0FFE71E980069FB49EA
:100B3000884201D1FFE700E0FFE7FFE71E9854215C
:100B4000405C012804D1FFE71FA90220087015E2CC
:100B50001E99542201208854FFE7FFE71E98006881
:100B600003F029FA002800D0F5E11D98406802281A
:100B700000D1AEE11E9800690121C907884206D064
:100B8000FFE71E980069E549884207D1FFE71E98F4
:100B900000681D99096803F023FA4AE11E98016E66
:100BA0001D9843681F2213400F229A4091431991C8
:100BB00000684002002808D1FFE71D9800681F2147
:100BC00089060840800E189017E11D980078C0072C
:100BD000002803D0FFE7002017900BE11D98007854
:100BE0008007002803D5FFE701201690FFE01D983D
:100BF00000784007002803D5FFE702201590F3E0B6
:100C00001D9800780007002803D5FFE70320149003
:100C1000E7E01D980078C006002803D5FFE7042010
:100C20001390DBE01D9800788006002803D5FFE7CD
:100C300005201290CFE01D9800784006002803D5CB
:100C4000FFE706201190C3E01D98007800060028F9
:100C500003D5FFE707201090B7E01D984078C00744
:100C6000002803D0FFE708200F90ABE01D984078E4
:100C70008007002803D5FFE709200E909FE01D980C
:100C800040784007002803D5FFE70A200D9093E045
:100C90001D9840780007002803D5FFE70B200C9033
:100CA00087E01D984078C006002803D5FFE70C2098
:100CB0000B907BE01D9840788006002803D5FFE765
:100CC0000D200A906FE01D9840784006002803D55B
:100CD000FFE70E20099063E01D9840780006002889
:100CE00003D5FFE70F20089057E01D988078C007D4
:100CF000002803D0FFE7102007904BE01D98807874
:100D00008007002803D5FFE7112006903FE01D98DB
:100D100080784007002803D5FFE71220059033E0D4
:100D20001D9880780007002803D5FFE71320049062
:100D300027E01D988078C006002803D5FFE714201F
:100D400003901BE01D9880788006002803D5FFE7FC
:100D5000152002900FE01D980168012082051140C6
:100D60001620002300939142019001D00098019039
:100D700001980290FFE702980390FFE70398049020
:100D8000FFE704980590FFE705980690FFE70698AF
:100D90000790FFE707980890FFE708980990FFE79A
:100DA00009980A90FFE70A980B90FFE70B980C90C0
:100DB000FFE70C980D90FFE70D980E90FFE70E9857
:100DC0000F90FFE70F981090FFE710981190FFE742
:100DD00011981290FFE712981390FFE71398149060
:100DE000FFE714981590FFE715981690FFE71698FF
:100DF0001790FFE717981890FFE7199818991D9A10
:100E000052681F231A40914008431E9908661D9896
:100E100040688008401C1E99C969884208D8FFE7CD
:100E20001E9800681D9A5168126803F0F7F8FFE7F2
:100E3000FFE71E9800681D9A1168926803F014F984
:100E40001D98C0780006002842D5FFE74E4803F001
:100E500081F81B901D9800684C49884221D1FFE71A
:100E60001BA88078000600281BD4FFE71B990120EF
:100E7000C0050143444803F00BF946480068464961
:100E8000FFF7BAF901460C204843401C1A90FFE7CF
:100E90001A98002804D0FFE71A98401E1A90F7E726
:100EA00015E01D9800683A4988420ED1FFE71BA85B
:100EB00080784006002808D4FFE71B9901208005B0
:100EC0000143314803F0E4F800E0FFE7FFE7FFE704
:100ED00040E01E9800690121C907884206D0FFE75B
:100EE0001E9800692749884207D1FFE71E980068CD
:100EF0001D99096803F082F8FFE71D98C078000685
:100F0000002826D5FFE7204803F024F81B901D9801
:100F100000681E4988420BD102E0C04604000080F0
:100F20001B990120C0058143174803F0B1F80FE079
:100F30001D9800681649884208D1FFE71B990120D7
:100F400080058143104803F0A3F800E0FFE7FFE7C6
:100F5000FFE7FFE708E01E99886D202210438865AF
:100F60001CA901200870FFE7FFE71E99542200200A
:100F70008854FFE71C981FA90870FFE71FA8007896
:100F800020B080BD0400008008270140000200A4BA
:100F9000000400A800000020400D030081B0009074
:100FA00001B0704781B0009001B0704781B00090EF
:100FB00001B0704780B586B0059000200490059878
:100FC000006800680390059800684068029003A8D4
:100FD0000078800700281BD5FFE702A8007880076B
:100FE000002815D5FFE70598806DC006002807D4B6
:100FF000FFE70599886D0122D20210438865FFE75B
:101000000598FFF76EFD0598016802200860FFE76C
:1010100003A800784007002806D5FFE702980421BE
:10102000084004280CD0FFE703A800780007002838
:1010300051D5FFE702A80078000700284BD5FFE74D
:101040000598806DC006002807D4FFE70599886DD4
:101050000122520210438865FFE70598006802F0FC
:10106000B3FF00282FD0FFE70598807E00282AD103
:10107000FFE70598006800680007002822D5FFE711
:101080000598006802F097FF00280FD1FFE7059848
:10109000016848680C22904348600598806D0121E2
:1010A000084309028843059988650AE00599886D17
:1010B0002022104388650599C86D01221043C86538
:1010C000FFE7FFE7FFE70598FFF768FF059801686E
:1010D0000C200860FFE703A800780006002814D55C
:1010E000FFE702A80078000600280ED5FFE7059963
:1010F000886D0122120410438865059800F068FA93
:101100000598016880200860FFE703A84078C007C1
:10111000002816D0FFE702A84078C007002810D0AA
:10112000FFE70599886D01220192520410438865FA
:101130000598FFF7DAFC0198059909680002086034
:10114000FFE703A840788007002816D5FFE702A82C
:1011500040788007002810D5FFE70599886D0122A7
:1011600000929204104388650598FFF7C2FC00982E
:101170000599096840020860FFE703A80078C006E7
:10118000002831D5FFE702A80078C00600282BD53B
:10119000FFE70598006B002803D1FFE701200490CA
:1011A0000AE00598006802F0FEFE002803D0FFE781
:1011B00001200490FFE7FFE7049801280FD1FFE723
:1011C0000599886D01229202104388650599C86DC2
:1011D00002221043C8650598FFF7E8FEFFE705986F
:1011E000016810200860FFE703A80078C007002806
:1011F0001CD0FFE702A80078C007002816D0FFE740
:101200000598806DC006002806D4FFE70599886D13
:10121000012210438865FFE70598FFF76EFC0598EB
:1012200001684868012290434860FFE703A84078BE
:10123000000700280FD5FFE702A840780007002824
:1012400009D5FFE70598FFF75CFC059801680120C8
:10125000C0020860FFE703A84078800600280FD589
:10126000FFE702A840788006002809D5FFE7059827
:10127000FFF733FC05980168012040030860FFE791
:1012800006B080BD80B58AB0089007A9002008701C
:101290000690059003900898002804D1FFE709A95B
:1012A0000120087083E108980069002809D0FFE751
:1012B0000898006901214905884201D1FFE7FFE74D
:1012C000FFE70898806D00280AD1FFE7089800F032
:1012D00083F908990020C865089954228854FFE7CB
:1012E0000898006802F055FE002815D1FFE708981D
:1012F000006802F021FEB0480068B049FEF77CFFAC
:1013000040000390FFE70398002804D0FFE703980C
:10131000401E0390F7E7FFE70898006802F039FEE7
:1013200000280DD1FFE70899886D102210438865C9
:10133000089AD16D01200143D16507A90870FFE724
:101340000898006802F037FE04900898806DC00687
:10135000002800D51EE10498002800D01AE1089862
:10136000806D02210843012109028843089988659C
:101370000898006802F005FE002800D0B0E0089848
:101380008168027E92031143427ED2031143827E22
:1013900052031143026B531E9A4112031143C26858
:1013A00011430291C07C0006002807D5FFE708988A
:1013B00000690121C9078843019003E0012040052D
:1013C0000190FFE702990198014308982C22805C64
:1013D0004000014306980843069008982021405C8D
:1013E000012817D1FFE70898807E002806D1FFE783
:1013F000069801210904084306900AE00899886DBF
:101400002022104388650899C86D01221043C865E1
:10141000FFE7FFE70898406A00280BD0FFE708982D
:10142000416A072292011140806A014306980843ED
:101430000690FFE708980068C0686149084006996F
:10144000084308990968C860089841680322920710
:101450001140C06C014305980843059008983C2151
:10146000405C012811D1FFE70899486803229207E0
:1014700010400A6C10434A6C1043896C084305996C
:101480000843012108430590FFE7089800680069B8
:101490004C4908400599084308990968086108986B
:1014A000406803218907884219D0FFE708984068FF
:1014B00001218907884212D0FFE70898406801217E
:1014C000C90788420BD0FFE73F4908680F22930401
:1014D0009843089A52681A4080180860FFE7FFE7AF
:1014E000089908684A6B002102F0E0FD0899086835
:1014F0008A6B364902F0DAFD08980069002808D1A5
:10150000FFE708980168886A0F22D2431043886277
:1015100019E00898006901214905884211D1FFE7C7
:1015200008980068806A0899C8698000021F1C201A
:1015300002400F20C04390400A6E10430968886241
:1015400000E0FFE7FFE708980068002102F00BFDCC
:101550000899496B88420CD1FFE708990020C865BB
:101560000898806D01210843022188430899886505
:101570000FE00898806D10210843022188430899E4
:101580008865089AD16D01200143D16507A90870CB
:10159000FFE708E00899886D10221043886507A9C5
:1015A00001200870FFE7079809A90870FFE709A85C
:1015B00000780AB080BDC04600000020400D030046
:1015C0000102DEFF02FCFF1F0827014004FFFF7F2E
:1015D00081B0009001B0704780B598B0179000209E
:1015E00007901690159014901390129011901090EF
:1015F0000F900E900D900C900B90179800683D493D
:10160000884274D1FFE720200B90002010900BA897
:1016100000F00CFD002803D0FFE7FFF75BFAFFE7BF
:10162000FFE735480268012109050A4302600068A6
:1016300008400A900A98FFE7FFE730480268012156
:101640000A4302600068084009900998FFE7FFE735
:101650002A48026802210A43026000680840089094
:101660000898FFE7022012900320029013900020B8
:101670000590149005200490000712A9039100F032
:1016800093FA029A039905981292139214901C48A7
:1016900000F08AFA049A05991A4806901A4B0360DA
:1016A00042608160C1608021016101210A024261C2
:1016B0008A0282612022C2610903016200F06CF992
:1016C000002803D0FFE7FFF705FAFFE7FFE71798C9
:1016D0000C49016517988862FFE70C2001900022F1
:1016E000114600F094FC019800F086FCFFE718B06A
:1016F00080BDC0460024014040100240341002402A
:1017000000040050140100200800024080B586B09B
:101710000490039102920498006802F04CFC0028A7
:101720006DD1FFE7FFE704985421405C012804D104
:10173000FFE705A90220087069E0049954220120FE
:101740008854FFE7FFE704980068C068C0070028D6
:1017500013D1FFE70498006802F013FC002805D0BD
:10176000FFE70498006802F0CFFBFFE704980168E8
:10177000C86801221043C860FFE70498FFF774F8B7
:10178000014601A801700078002837D1FFE70498CE
:10179000806D0121090208431F49084004998865AA
:1017A00004990020C8650498016D1C48C86204981B
:1017B000016D1B4808630498016D1A48486304983A
:1017C00001681C200860FFE7049954220020885417
:1017D000FFE70498016848681022104348600499A4
:1017E000086D09684031039A029B00F055F901A980
:1017F00008700498006802F029FCFFE703E001A9E3
:1018000002200870FFE7019805A90870FFE705A806
:10181000007806B080BDC046FEF1FFFF69070008F2
:10182000510800082708000880B584B00390584884
:10183000006802900398006800680190029803997C
:10184000096C1C221140C8404007002828D5FFE73A
:1018500001A800784007002822D5FFE70398006818
:1018600000688006002807D4FFE70398016808682D
:10187000042290430860FFE70398006C1C21084095
:101880000422824043490868104308600398006BB3
:10189000002804D0FFE70398016B8847FFE774E056
:1018A00002980399096C1C221140C8408007002847
:1018B00032D5FFE701A80078800700282CD5FFE784
:1018C000039800680068800600280BD4FFE703989F
:1018D000016808680A2290430860039925220120C4
:1018E0008854FFE70398006C1C21084002228240C4
:1018F0002849086810430860FFE703992422002064
:101900008854FFE70398C06A002804D0FFE70398D3
:10191000C16A8847FFE737E002980399096C1C22E7
:101920001140C840000700282CD5FFE701A8007827
:101930000007002826D5FFE70398016808680E22F3
:10194000904308600398016C1C200140012003466D
:101950008B40104A1168194311600399C8630399B9
:1019600025228854FFE70399242200208854FFE7AA
:101970000398406B002804D0FFE70398416B884729
:10198000FFE700E0FFE7FFE7FFE704B080BDC046E8
:10199000000002400400024080B584B0029002982A
:1019A000002804D1FFE703A9012008706CE0029829
:1019B00000900068364940181421FEF71DFC00997C
:1019C0008000086402992522022088540298016848
:1019D0000868304A10400860029801908268C16827
:1019E0000A4301690A4341690A4381690A43C1699B
:1019F0000A43016A0A4301680868104308600298B4
:101A0000FEF7EEFF0298806801218903884204D125
:101A1000FFE7029900204860FFE702990879496CC6
:101A200008600299C86C896C486002984068002878
:101A300011D0FFE70298406804280CD8FFE702980D
:101A4000FEF7F0FF0298016D002008600299886D92
:101A5000496D486007E002990020086502994865D1
:101A600002998865FFE702990020C8630299252240
:101A700001208854FFE70299242200208854FFE7C0
:101A800003A900200870FFE703A8007804B080BD18
:101A9000F8FFFDBF0F80FFFF80B586B00490039173
:101AA00002920193694600200870FFE70498242100
:101AB000405C012804D1FFE705A9022008706EE010
:101AC0000499242201208854FFE7FFE70498252188
:101AD000405C01284FD1FFE7049925220220885459
:101AE00004990020C86304980168086801229043A3
:101AF000086004980399029A019BFEF7AFFF0498CF
:101B0000006B002807D0FFE70498016808680E22E0
:101B1000104308600CE004980168086804229043B0
:101B200008600498016808680A2210430860FFE70B
:101B30000498406C0068C003002808D5FFE70498AB
:101B4000416C08680122120210430860FFE7049804
:101B5000006D002808D0FFE70498016D0868012295
:101B6000120210430860FFE7049801680868012228
:101B70001043086009E0FFE70499242200208854FC
:101B8000FFE7694602200870FFE7FFE70499242277
:101B900000208854FFE7009805A90870FFE705A812
:101BA000007806B080BD00008BB00A90099100203B
:101BB0000690FFE7099800680699C840002800D100
:101BC0005BE109980068069A01219140084007905E
:101BD0000798002800D14CE109984068022805D0F8
:101BE000FFE709984068122822D1FFE70A98069972
:101BF000C90889004018006A089006984007C10E7D
:101C00000F2002468A400899914308910999096971
:101C1000014006984007C00E81400898084308908C
:101C200008980A99069AD208920089180862FFE774
:101C30000A980068089006984100032002468A40EE
:101C40000899914308910999496801400698400014
:101C5000814008980843089008980A9908600998F4
:101C6000406801280FD0FFE70998406802280AD091
:101C7000FFE709984068112805D0FFE709984068F8
:101C800012282CD1FFE70A98806808900698400037
:101C9000032181400898884308900998C1680698F4
:101CA0004000814008980843089008980A99886085
:101CB0000A98406808900698012181400898884356
:101CC0000890099840681021084001090698814051
:101CD00008980843089008980A994860FFE709980F
:101CE0004068032816D0FFE70A98C0680890069855
:101CF0004000032181400898884308900998816832
:101D000006984000814008980843089008980A996E
:101D1000C860FFE70998C079C006002800D4A7E092
:101D20000698032188435649405808900698800732
:101D3000C00E0F2181400898884308900A98052119
:101D40000907884203D1FFE7002005902DE00A989B
:101D50004C49884203D1FFE70120049022E00A9811
:101D60004949884203D1FFE70220039017E00A980F
:101D70004649884203D1FFE7032002900CE00A990C
:101D8000434A0520062300939142019001D0009818
:101D9000019001980290FFE702980390FFE70398F3
:101DA0000490FFE704980590FFE7059906988007DF
:101DB000C00E8140089808430890089806990322AD
:101DC00091432F4A88503348006808900799089833
:101DD0008843089009988079C007002805D0FFE75C
:101DE0000799089808430890FFE708982949086070
:101DF000294800680890079908988843089009982E
:101E000080798007002805D5FFE7079908980843DF
:101E10000890FFE70898204908602048006808906B
:101E2000079908988843089009988079C006002887
:101E300005D5FFE70799089808430890FFE7089839
:101E40001649086016480068089007990898884362
:101E50000890099880798006002805D5FFE7079942
:101E6000089808430890FFE708980D490860FFE7C5
:101E7000FFE70698401C06909CE60BB07047C046F2
:101E8000601802400004005000080050000C005090
:101E900000140050801802408418024000180240CC
:101EA0000418024083B0029001A801800299496998
:101EB0000091009A018810460840000491434018A0
:101EC0000299886103B0704783B0029001A8018035
:101ED000684602700078002805D0FFE701A8008856
:101EE0000299886104E001A8008802998862FFE7EE
:101EF00003B07047054800687047C0462D48027817
:101F000002490868801808607047C046F402002043
:101F100080B582B001A900200870032000F00EF8FF
:101F2000002804D0FFE701A90120087002E000F0BA
:101F300047F8FFE701A8007802B080BD80B584B003
:101F4000039002A9002008701A480078002829D0C0
:101F5000FFE7194800680190164801787D20C0000D
:101F6000FEF74AF901460198FEF746F900F0CAFC6F
:101F7000002812D1FFE70398032809D8FFE7039947
:101F80000022D04300F043F803980C49086003E0B6
:101F900002A901200870FFE703E002A901200870F0
:101FA000FFE703E002A901200870FFE702A800781C
:101FB00004B080BD18000020000000201C0000209C
:101FC00082B0FFE70B48026801210A430260006803
:101FD000084001900198FFE7FFE78048026801216F
:101FE00009070A4302600068084000900098FFE774
:101FF00002B070474010024080B582B0014601A88F
:1020000001700021405602F035FF02B080BD80B55E
:1020100084B0034603A80370029101920021405648
:10202000029902F03DFF04B080BD000080B588B089
:10203000079004A90020087003A908700798007889
:102040004006002878D5FFE702A900200870634801
:102050000068C000002810D4FFE7FFE75F4802686F
:10206000012109070A4302600068084001900198B5
:10207000FFE702A901200870FFE7E7480068032195
:102080000902084006900698002817D0FFE7069836
:1020900007998969884211D0FFE7DF490868032260
:1020A000120290430690086801221204104308604F
:1020B00008689043086006980860FFE706A8007863
:1020C000C007002818D0FFE7FFF714FF0590FFE7CF
:1020D000D1480068800700280DD4FFE7FFF70AFF0A
:1020E0000599401AD149884204D3FFE704A9032087
:1020F000087000E0ECE7FFE704A8007800280AD1A8
:10210000FFE7C5490868032212029043079A9269C3
:102110001043086003E0049803A90870FFE702A8D1
:102120000078012807D1FFE72C490868012212072F
:1021300090430860FFE7FFE707980078C007002892
:1021400009D0FFE72649086803229043079A92685E
:1021500010430860FFE707980078800700280AD539
:10216000FFE71F490868032212039043079AD268C9
:1021700010430860FFE707980078800600280AD51A
:10218000FFE717490868032292079043079A5269AC
:1021900010430860FFE707980078400700280AD539
:1021A000FFE70F490868032292039043079A1269D8
:1021B00010430860FFE7079800780006002809D55B
:1021C000FFE7C2490868E0229043079A526810432B
:1021D0000860FFE703A8007808B080BD3C1002400B
:1021E0005410024080B584B00290019102980028FA
:1021F00004D1FFE703A90120087006E10198854991
:10220000096807221140884221D9FFE781490868FF
:1022100007229043019A10430860FFF76BFE00907D
:10222000FFE77C48006807210840019988420DD0EB
:10223000FFE7FFF75FFE0099401A7C49884204D30C
:10224000FFE703A903200870DFE0EAE7FFE7029851
:102250000078800700281AD5FFE702980078400729
:1022600000280AD5FFE79A4908680B22120210439A
:102270000722120390430860FFE7954908680F2280
:1022800012029043029AD26810430860FFE7029856
:102290000078C007002869D0FFE78C4908681C2235
:1022A0009043029A9268104308600298406801289F
:1022B0000BD1FFE7854800688003002804D4FFE7BE
:1022C00003A901200870A0E02CE0029840680028D3
:1022D0000BD1FFE77D4800684005002804D4FFE7E4
:1022E00003A90120087090E01BE0029840680328D1
:1022F0000BD1FFE7494800688007002804D4FFE7B6
:1023000003A90120087080E00AE0434800688007C4
:10231000002804D4FFE703A90120087075E0FFE757
:10232000FFE7FFE76A49086807229043029A52686C
:1023300010430860FFF7DEFD0090FFE76448006887
:102340003821084002994968C90088420DD0FFE74A
:10235000FFF7D0FD0099401A3449884204D3FFE7C3
:1023600003A90320087050E0E8E7FFE70198294936
:10237000096807221140884221D2FFE725490868F1
:1023800007229043019A10430860FFF7B3FD0090C5
:10239000FFE72048006807210840019988420DD0D6
:1023A000FFE7FFF7A7FD0099401A2049884204D3B0
:1023B000FFE703A90320087027E0EAE7FFE7029898
:1023C0000078400700280AD5FFE74149086807223E
:1023D00012039043029A126910430860FFE700F06D
:1023E00027F83B4909680F22120211408A090C495B
:1023F00089581F221140C8400A4908600A480068ED
:10240000FFF79CFD03A90870FFE703A8007804B05C
:1024100080BDC046002002405C10024060100240B7
:1024200004520008000000201C0000208913000056
:1024300080B584B0254800681C2108408008401CF5
:102440000190234800688006400F00280FD1FFE765
:102450001E4800680721C9020840C10A01208840BF
:10246000039003991C48FDF7C7FE029025E0184829
:10247000006838210840082803D1FFE7154802907A
:102480001AE01348006838210840202804D1FFE7EB
:102490000120C00302900EE00D480068382108407A
:1024A000182804D1FFE77D200002029002E00020FE
:1024B0000290FFE7FFE7FFE7FFE702980199FDF7CA
:1024C0009BFE0290029804B080BDC04600100240FE
:1024D0000810024000127A00006CDC0280B586B061
:1024E00004900498002804D1FFE705A90120087092
:1024F000F0E104980078C007002876D0FFE7F7489D
:102500000068382108400290029808280AD1FFE7A5
:1025100004984068002804D1FFE705A9012008704D
:10252000D8E161E0FFE7049840680121090488428E
:1025300007D1FFE7EA490868012212041043086046
:102540001DE0049840680521090488420BD1FFE78B
:10255000E3490868012293041843086008681204DC
:10256000104308600AE0DE4908680122130498431A
:1025700008600868920490430860FFE7FFE7FFE700
:1025800004984068002817D0FFE7FFF7B3FC0390DA
:10259000FFE7D3480068800300280CD4FFE7FFF76B
:1025A000A9FC0399401A652804D3FFE705A9032075
:1025B00008708FE1EDE716E0FFF79CFC0390FFE762
:1025C000C7480068800300280CD5FFE7FFF792FC9E
:1025D0000399401A652804D3FFE705A90320087072
:1025E00078E1EDE7FFE7FFE7FFE704980078800771
:1025F000002800D490E0B9480068382108400290D3
:102600000298002835D1FFE70498C068002804D15B
:10261000FFE705A9012008705CE1B24908687F2244
:1026200012029043049A5269120210430860029801
:10263000002811D1FFE7AA4802680721C9028A438E
:10264000049B1B691A43026000680840C10AA6483F
:10265000C840A6490860FFE7A5480068FFF76EFC80
:10266000002804D0FFE705A90120087032E1FFE748
:1026700051E00498C06800282FD0FFE79849086807
:102680000722D2029043049A126910430860086836
:102690000122120210430860FFF72CFC0390FFE7B1
:1026A0008F480068400500280CD4FFE7FFF722FCA4
:1026B0000399401A032804D3FFE705A903200870F3
:1026C00008E1EDE7874908687F2212029043049AE7
:1026D00052691202104308601CE081490868012217
:1026E000120290430860FFF705FC0390FFE77C4867
:1026F0000068400500280CD5FFE7FFF7FBFB0399B6
:10270000401A032804D3FFE705A903200870E1E07D
:10271000EDE7FFE7FFE7FFE70498007800070028F0
:1027200050D5FFE76D4800683821084018280AD1C5
:10273000FFE704988069002804D1FFE705A901207C
:102740000870C7E03DE00498806900281CD0FFE7CE
:1027500068490868012210430860FFF7CBFB03902B
:10276000FFE764480068800700280CD4FFE7FFF704
:10277000C1FB0399401A032804D3FFE705A90320EE
:102780000870A7E0EDE71BE05A4908680122904372
:102790000860FFF7AFFB0390FFE75648006880072B
:1027A00000280CD5FFE7FFF7A5FB0399401A032883
:1027B00004D3FFE705A9032008708BE0EDE7FFE7EE
:1027C000FFE7FFE704980078400700287ED5FFE781
:1027D00001A90020087041480068382108402028DD
:1027E0000AD1FFE704988068002804D1FFE705A913
:1027F000012008706EE068E0FFE704988068012817
:1028000006D1FFE73C49086801221043086019E03F
:102810000498806805280AD1FFE737490868042230
:1028200010430860086801221043086009E032493B
:1028300008680122904308600868042290430860F9
:10284000FFE7FFE7FFE704988068002818D0FFE75C
:10285000FFF750FB0390FFE7274800688007002838
:102860000DD4FFE7FFF746FB0399401A234988423E
:1028700004D3FFE705A9032008702BE0ECE717E07D
:10288000FFF738FB0390FFE71B480068800700282C
:102890000DD5FFE7FFF72EFB0399401A1749884231
:1028A00004D3FFE705A90320087013E0ECE7FFE776
:1028B00001A80078012807D1FFE711490868012223
:1028C000120790430860FFE7FFE7FFE705A9002034
:1028D0000870FFE705A8007806B080BD0810024028
:1028E0000010024004100240006CDC0200000020D6
:1028F0001C000020601002405C10024089130000A0
:102900003C10024080B582B00190019801F0FAFDC0
:1029100002B080BD81B0009001B0704781B00090DE
:1029200001B0704781B0009001B0704784B0029050
:10293000019100200090FFE702983C21405C0128B3
:1029400004D1FFE703A9022008707CE002993C2231
:1029500001208854FFE7FFE70098FF218843019991
:10296000C96808430090009803210902884301992F
:10297000896808430090009801218A029043019AD7
:102980005268104300900098CA029043019A12685E
:102990001043009000980A039043019A1269104373
:1029A000009000984A039043019A526910430090A6
:1029B00000988A039043019A126B1043009000988C
:1029C0000F2212049043019A92691204104300905E
:1029D0000098090788430199C96908430090029843
:1029E0000068D249884220D1FFE700980F210905ED
:1029F00088430199896A09050843009000980121DC
:102A00000A069043019A126A1043009000984A0601
:102A10009043019A526A10430090009849078843F6
:102A20000199C96A08430090FFE700980299096874
:102A30004864FFE702993C2200208854FFE703A97D
:102A400000200870FFE703A8007804B07047C04674
:102A500085B003900291FFE703983C21405C012878
:102A600004D1FFE704A90220087057E003993C2233
:102A700001208854FFE7FFE703993D220220885494
:102A8000039800684068019003980068806800908F
:102A900003980068A54988420BD1FFE701980F21F0
:102AA0000905884301900298416801980843019004
:102AB000FFE701987021884301900298016801980E
:102AC00008430190019803990968486003980068D9
:102AD0009649884206D0FFE703980068DF4988429C
:102AE0000ED1FFE70098802188430090029881680A
:102AF0000098084300900098039909688860FFE7F0
:102B000003993D2201208854FFE703993C220020CD
:102B10008854FFE704A900200870FFE704A80078A4
:102B200005B0704780B582B000900098002804D1AD
:102B3000FFE701A90120087045E000983D21405CB5
:102B4000002808D1FFE700993C2200208854009813
:102B500000F03EF8FFE700993D22022088540099DA
:102B600001C901F065FD0099482201208854FFE762
:102B700000993E220120885400993F2288540099F0
:102B80004022885400994122885400994222885456
:102B9000009943228854FFE7FFE70099442201206F
:102BA00088540099452288540099462288540099F7
:102BB00047228854FFE700993D220120885401A94B
:102BC00000200870FFE701A8007802B080BD000077
:102BD00080B588B00790079800682B49884216D1C5
:102BE000FFE7FFE72B4802680121C9030A4302609F
:102BF0000068084006900698FFE713200390002223
:102C00001146FFF704FA0398FFF7F6F939E0079841
:102C100000681E49884216D1FFE7FFE71D48026899
:102C2000012149040A4302600068084005900598A4
:102C3000FFE71520029000221146FFF7E8F90298FD
:102C4000FFF7DAF91CE0079800681149884216D1AD
:102C5000FFE7FFE70F480268012189040A43026089
:102C60000068084004900498FFE7162001900022B5
:102C70001146FFF7CCF90198FFF7BEF9FFE7FFE730
:102C8000FFE708B080BDC04600200040004401407E
:102C9000004801404010024083B0019001983D215E
:102CA000405C012804D0FFE702A90120087038E049
:102CB00001993D220220885401980168C8680122C8
:102CC0001043C860019800681849884206D0FFE7A1
:102CD000019800686149884218D1FFE701980068AF
:102CE0008068134908400090009806280DD0FFE73F
:102CF000009801210904884207D0FFE70198016884
:102D00000868012210430860FFE706E001980168A7
:102D10000868012210430860FFE702A9002008703C
:102D2000FFE702A8007803B07047C046002C0140BE
:102D30000700010080B584B0039003980068F8494B
:102D4000884200D087E00398007F042800D082E00A
:102D50000398082100F0E4FF0290002001900298FF
:102D60003F490968884206D3FFE702983C49096851
:102D7000401A019009E00398C06839490968401A6F
:102D800002994018401C0190FFE70198002857D095
:102D9000FFE70198FDF708FC324902F0BBF9014654
:102DA0007F20C005FDF70CFB00900098FDF7DEFAD0
:102DB00000222D4B02F03DF900280DD1FFE70098CD
:102DC000FDF7D4FA0022294B02F028F9002803D19C
:102DD000FFE700F0EAFF32E00098FDF7C7FA0022B3
:102DE000234B02F026F900280DD1FFE70098FDF7EC
:102DF000BDFA00221F4B02F011F9002803D1FFE7B2
:102E000000F0F3FF1AE00098FDF7B0FA00221A4B29
:102E100002F00FF900280DD1FFE70098FDF7A6FAA0
:102E20000022164B02F0FAF8002803D1FFE700F069
:102E3000BBFF02E000F0FAFFFFE7FFE7FFE7FFE775
:102E4000FFF758F80E4908600E49002008700298F4
:102E500003490860FFE704B080BDC046000400409D
:102E60008000002017B7D13700000C40000012404E
:102E700000001E400000214000002F400080304034
:102E8000F0020020EC02002080B586B0049003918F
:102E9000029201A900200870FFE704983C21405CE1
:102EA000012804D1FFE705A90220087082E00499F7
:102EB0003C2201208854FFE7FFE70298002816D142
:102EC000FFE704980068039B19685A68DB6801F003
:102ED000DBFE0498016888690C229043886103989E
:102EE00082680498016888691043886158E00298F4
:102EF000042818D1FFE704980068039B19685A68F2
:102F0000DB6801F011FF04980168886903229202CE
:102F10009043886103988068020204980168886978
:102F2000104388613BE00298082816D1FFE7049817
:102F30000068039B19685A68DB6801F02CFF04984D
:102F40000168C8690C229043C8610398826804989C
:102F50000168C8691043C86120E002980C2818D1A4
:102F6000FFE704980068039B19685A68DB6801F062
:102F700048FF04980168C869032292029043C8611F
:102F800003988068020204980168C8691043C86108
:102F900003E001A901200870FFE7FFE7FFE7FFE773
:102FA000FFE704993C2200208854FFE7019805A917
:102FB0000870FFE705A8007806B080BD80B582B034
:102FC00000900098002804D1FFE701A901200870B3
:102FD00045E000983D21405C002808D1FFE70099BA
:102FE0003C2200208854009800F03EF8FFE700994A
:102FF0003D2202208854009901C901F019FB009973
:10300000482201208854FFE700993E22012088547D
:1030100000993F2288540099402288540099412207
:103020008854009942228854009943228854FFE72B
:10303000FFE70099442201208854009945228854D2
:10304000009946228854009947228854FFE7009946
:103050003D220120885401A900200870FFE701A843
:10306000007802B080BD000010B58EB00D90002039
:103070000C900B900A90099008900D980068E34915
:1030800088424AD1FFE7FFE72648026802210A4347
:1030900002600068084007900798FFE7FFE72248B2
:1030A000026804210A4302600068084006900698FE
:1030B000FFE7FFE71C48026802210A43026000683C
:1030C000084005900598FFE70124E00308900220DE
:1030D00000900990002003900A900B90032001902B
:1030E0000C90124808A90291FEF75EFD009B019822
:1030F0000299039A2402089409930A920B920C9065
:103100000B48FEF751FD039A102004901146FEF77C
:103110007EFF0498FEF770FFFFE70EB010BDC046BB
:10312000000400403C1002403410024000080050EF
:103130000004005080B596B01490139112A900209D
:1031400008701398002805D1FFE714983E21405CD1
:103150000E9034E01398042805D1FFE714983F211E
:10316000405C0D9028E01398082805D1FFE71498DB
:103170004021405C0C901CE013980C2805D1FFE71F
:1031800014984121405C0B9010E01398102805D151
:10319000FFE714984221405C0A9004E01498432110
:1031A000405C0A90FFE70A980B90FFE70B980C90A1
:1031B000FFE70C980D90FFE70D980E90FFE70E9833
:1031C00010A908701398002805D1FFE7149844212E
:1031D000405C09901CE01398042805D1FFE714987F
:1031E0004521405C089010E01398082805D1FFE7BE
:1031F00014984621405C079004E014984721405CF5
:103200000790FFE707980890FFE708980990FFE705
:1032100009980FA9087010A80078012805D1FFE7C8
:103220000FA80078012804D0FFE715A90120087035
:10323000E7E01398002805D1FFE714993E22022009
:10324000885438E01398042806D1FFE714993F22E8
:103250000220885406902CE01398082806D1FFE736
:10326000149940220220885405901FE013980C28DE
:1032700006D1FFE71499412202208854049012E0FD
:103280001398102806D1FFE714994222022088548F
:10329000039005E014994322022088540390FFE72D
:1032A00003980490FFE704980590FFE705980690BF
:1032B000FFE70698FFE71398002805D1FFE7149968
:1032C0004422022088541EE01398042806D1FFE708
:1032D0001499452202208854029012E0139808287D
:1032E00006D1FFE71499462202208854019005E098
:1032F00014994722022088540190FFE70198029018
:10330000FFE70298FFE7139800900C283AD800983E
:10331000810001A0405887464D33000885330008DE
:1033200085330008853300085B33000885330008C7
:1033300085330008853300086933000885330008A9
:103340008533000885330008773300081498016836
:10335000C86802221043C86018E014980168C86861
:1033600004221043C86011E014980168C86808225C
:103370001043C8600AE014980168C868102210431E
:10338000C86003E012A901200870FFE712A80078C6
:10339000002832D1FFE7149800681399012201F048
:1033A000C3F914980068C949884206D0FFE7149809
:1033B00000681649884218D1FFE7149800688068B1
:1033C000134908401190119806280DD0FFE7119875
:1033D00001210904884207D0FFE7149801680868B2
:1033E000012210430860FFE706E0149801680868AE
:1033F000012210430860FFE7FFE7129815A9087043
:10340000FFE715A8007816B080BDC0460004004054
:103410000700010080B584B0039003980068C0687D
:103420000290039800680069019001A80078800765
:10343000002825D5FFE702A80078800700281ED5C0
:10344000FFE7039801680220C04308610399012047
:1034500008770398006880698007002804D0FFE798
:103460000398FFF767FC06E0039800F033F9039830
:1034700000F0B6FAFFE7039900200877FFE7FFE7BF
:1034800001A800784007002826D5FFE702A80078A9
:10349000400700281FD5FFE7039801680420C043B8
:1034A0000861039902200877039800688069800505
:1034B000800F002804D0FFE70398FFF73BFC06E0ED
:1034C000039800F007F9039800F08AFAFFE70399E0
:1034D00000200877FFE7FFE701A800780007002831
:1034E00025D5FFE702A80078000700281ED5FFE7D2
:1034F000039801680820C0430861039904200877F5
:1035000003980068C0698007002804D0FFE703988B
:10351000FFF710FC06E0039800F0DCF8039800F0D9
:103520005FFAFFE7039900200877FFE7FFE701A8AC
:103530000078C006002826D5FFE702A80078C0065C
:1035400000281FD5FFE7039801681020C0430861D9
:1035500003990820087703980068C0698005800FE8
:10356000002804D0FFE70398FFF7E4FB06E0039888
:1035700000F0B0F8039800F033FAFFE70399002059
:103580000877FFE7FFE701A80078C007002810D000
:10359000FFE702A80078C007002809D0FFE70398DA
:1035A00001680120C0430861039800F0B5FBFFE704
:1035B000FFE7019880210840802806D0FFE701A896
:1035C0004078800600280FD5FFE702A800780006A3
:1035D000002808D5FFE7039801682548086103988B
:1035E000FFF79CF9FFE7FFE701A84078C007002834
:1035F0000FD0FFE702A800780006002808D5FFE7F3
:10360000039801681B4808610398FFF783F9FFE7F7
:10361000FFE701A800784006002810D5FFE702A8C0
:1036200000784006002809D5FFE70398016840208C
:10363000C0430861039800F0B3FBFFE7FFE701A870
:1036400000788006002810D5FFE702A800788006E1
:10365000002809D5FFE7039801682020C0430861CE
:103660000398FFF75FF9FFE7FFE704B080BDC046AE
:103670007FDFFFFFFFFEFFFF80B588B007900020CF
:103680000690059004900390029007980068D24934
:10369000884219D1FFE7FFE70D48026801210A437C
:1036A00002600068084001900198FFE70420029042
:1036B000022003900020049005900520069000074A
:1036C00002A9FEF771FAFFE708B080BD002C0140A7
:1036D0003410024081B0009001B0704780B586B0D0
:1036E00004900391029201A900200870FFE704985A
:1036F0003C21405C012804D1FFE705A902200870A5
:10370000E4E004993C2201208854FFE7FFE7029897
:103710000090142800D9CBE00098810001A0405807
:103720008746C04679370008B1380008B13800082C
:10373000B1380008AB370008B1380008B1380008CC
:10374000B1380008E1370008B1380008B138000886
:10375000B138000813380008B1380008B138000843
:10376000B138000849380008B1380008B1380008FD
:10377000B13800087B38000804980068039900F00D
:10378000EDFF049801688869082210438861049855
:10379000016888690422904388610398026904984B
:1037A000016888691043886186E00498006803997D
:1037B00001F04AF80498016888690122D30218438D
:1037C000886104980168886992029043886103982F
:1037D00000690202049801688869104388616BE0FF
:1037E00004980068039901F0B7F804980168C86963
:1037F00008221043C86104980168C86904229043F4
:10380000C8610398026904980168C8691043C861D7
:1038100052E004980068039901F02AF904980168BD
:10382000C8690122D3021843C86104980168C869B5
:1038300092029043C86103980069020204980168EB
:10384000C8691043C86137E004980068039901F023
:103850006DF904980168486D082210434865049882
:103860000168486D042290434865039802690498F2
:103870000168486D104348651EE00498006803998C
:1038800001F0AAF904980168486D0122D302184397
:10389000486504980168486D920290434865039812
:1038A0000069020204980168486D1043486503E00E
:1038B00001A901200870FFE7FFE704993C220020DE
:1038C0008854FFE7019805A90870FFE705A800786C
:1038D00006B080BD80B582B000900098002804D169
:1038E000FFE701A90120087045E000983D21405CF8
:1038F000002808D1FFE700993C2200208854009856
:1039000000F03EF8FFE700993D220220885400991C
:1039100001C900F08DFE0099482201208854FFE77C
:1039200000993E220120885400993F228854009932
:103930004022885400994122885400994222885498
:10394000009943228854FFE7FFE7009944220120B1
:103950008854009945228854009946228854009939
:1039600047228854FFE700993D220120885401A98D
:1039700000200870FFE701A8007802B080BD0000B9
:1039800080B586B0059005980068DE49884220D150
:10399000FFE7FFE7114802680121C9020A430260FC
:1039A0000068084004900498FFE70D200190002271
:1039B00002921146FEF72BFB0198FEF71DFB029ABF
:1039C0000E2003901146FEF722FB0398FEF714FB2E
:1039D000FFE706B080BDC046002C01404010024009
:1039E00081B0009001B0704780B590B00E900D91FD
:1039F0000D98002805D1FFE70E983E21405C0B9002
:103A000034E00D98042805D1FFE70E983F21405C73
:103A10000A9028E00D98082805D1FFE70E9840216C
:103A2000405C09901CE00D980C2805D1FFE70E982A
:103A30004121405C089010E00D98102805D1FFE767
:103A40000E984221405C079004E00E984321405CB0
:103A50000790FFE707980890FFE708980990FFE7AD
:103A600009980A90FFE70A980B90FFE70B98012846
:103A700004D0FFE70FA9012008709CE00D980028F2
:103A800005D1FFE70E993E220220885438E00D98B8
:103A9000042806D1FFE70E993F22022088540690A1
:103AA0002CE00D98082806D1FFE70E99402202204D
:103AB000885405901FE00D980C2806D1FFE70E9959
:103AC000412202208854049012E00D98102806D15B
:103AD000FFE70E99422202208854039005E00E99D8
:103AE0004322022088540390FFE703980490FFE7E5
:103AF00004980590FFE705980690FFE70698FFE712
:103B00000E9800680D990122019200F00DFE0198B7
:103B10000E9909687B4A9142029010D0FFE70E98F7
:103B200001680120784A9142029008D0FFE70E9880
:103B3000006876494018414248410290FFE70298E8
:103B4000C007002808D0FFE70E980168486C0122E2
:103B5000D20310434864FFE70E9800686949884221
:103B600006D0FFE70E9800681549884218D1FFE794
:103B70000E9800688068134908400C900C9806283D
:103B80000DD0FFE70C9801210904884207D0FFE718
:103B90000E9801680868012210430860FFE706E0FC
:103BA0000E9801680868012210430860FFE70FA91A
:103BB00000200870FFE70FA8007810B080BDC04655
:103BC000000400400700010080B588B0079006910E
:103BD000079800680699002200F0A6FD0798016882
:103BE0000120484A9142059010D0FFE707980168EC
:103BF0000120454A9142059008D0FFE707980068E8
:103C000042494018414248410590FFE70598C007E6
:103C100000281AD0FFE7FFE707980068006A3C49D0
:103C2000084210D1FFE707980068006A3949084246
:103C300008D1FFE707980168486C0122D20390433E
:103C40004864FFE7FFE7FFE7FFE7FFE70798006843
:103C5000006A2F4908420FD1FFE707980068006A01
:103C60002C49084207D1FFE707980168086801223C
:103C700090430860FFE7FFE7FFE70698002805D1BB
:103C8000FFE707993E220120885438E0069804286F
:103C900006D1FFE707993F220120885404902CE0C9
:103CA0000698082806D1FFE707994022012088548A
:103CB00003901FE006980C2806D1FFE707994122E0
:103CC00001208854029012E00698102806D1FFE7E0
:103CD0000799422201208854019005E00799432268
:103CE000012088540190FFE701980290FFE70298B5
:103CF0000390FFE703980490FFE70498FFE7002094
:103D000008B080BD002C01400044014000B8FEBF57
:103D1000111100004404000081B0009001B0704710
:103D200084B00390029100200190029800900C282A
:103D300032D80098810001A040588746713D0008A4
:103D4000993D0008993D0008993D00087B3D000819
:103D5000993D0008993D0008993D0008853D0008FF
:103D6000993D0008993D0008993D00088F3D0008E5
:103D700003980068406B01900FE003980068806B27
:103D800001900AE003980068C06B019005E0039879
:103D90000068006C019000E0FFE7019804B07047F4
:103DA00081B0009001B07047704780B582B001F0DB
:103DB00001F9052000070122114600F07BF801A956
:103DC00000200870FFE701A8007804280BDCFFE75B
:103DD00001A80078022100F075FBFFE70198401C64
:103DE00001A90870EFE702B080BD80B582B001F094
:103DF000E1F8052000070122D10300F05BF801A9DA
:103E000000200870FFE701A8007804280BDCFFE71A
:103E100001A80078022100F055FBFFE70198401C43
:103E200001A90870EFE702B080BD000080B584B042
:103E30000D480821FFF7C8FE00F026FB052000070B
:103E40000190012103910022029200F033F80198C1
:103E5000029A0399C90300F02DF8039A14484021EF
:103E600000F028F804B080BD70010020FFE7FEE7F5
:103E700080B584B000F008FB052000070190012107
:103E800002910022039200F015F801980299039A1A
:103E9000C90300F00FF8039AF848402100F00AF82F
:103EA0000298039A8103F34800F004F804B080BD3F
:103EB0000004005080B584B0039002A8018001A8DE
:103EC000027000780090002808D0FFE700980128D1
:103ED0000BD0FFE7009802280ED013E0039802A948
:103EE00009880122FDF7F0FF0CE0039802A9098878
:103EF0000022FDF7E9FF05E0039802A90988FDF714
:103F0000D1FFFFE704B080BD81B0009000988068C9
:103F100054490840801C0099886001B07047C04631
:103F200081B00090009880684E490840401C00997C
:103F3000886001B07047C04681B0009000988068EA
:103F4000012109070843474908400099886001B0EA
:103F50007047C04681B00090009800680321890531
:103F6000084001B0704782B001900091019840690B
:103F700000990422114007228A401040C84002B034
:103F8000704781B00090009880680121084001B01E
:103F9000704781B0009000988068012109070840AF
:103FA000000F01B0704781B000900098C0680321F5
:103FB000084001B0704781B00090009880680421EB
:103FC0000840800801B0704781B000900098C06838
:103FD0000321890208404142484101B07047000076
:103FE00082B001900091009A034802400199886ACA
:103FF0001043886202B07047FFFF7F0082B00190DB
:1040000000910098C243044802430199886A104015
:10401000886202B07047C046000080FF83B0029003
:10402000019100920298806A019A1F210A400F2391
:1040300019469140884300999B061940890E91408A
:1040400008430299886203B07047000081B0009075
:104050000098806803490840001D0099886001B0FD
:104060007047C046E8FFFF7F83B002900191009245
:104070000298406901990A02904300991140034A4D
:10408000114008430299486103B0704700FFFF7F69
:1040900082B001900091019800680321890588434E
:1040A000009908430199086002B0704783B00290FC
:1040B0000191009202984069019A04210A40072167
:1040C000914088430099914008430299486103B0A8
:1040D0007047000010B586B0002101910591049150
:1040E000039120480290204A026001229307436016
:1040F000031D8160C160D40704610424446101761A
:1041000041768276C2611977416281622C23C25462
:104110000163022242633C228154C164FDF7B2F87C
:10412000002803D0FFE7FCF7D5FCFFE70F4803901A
:10413000012004900B4803A9FCF7E8FC002803D0F9
:10414000FFE7FCF7C7FCFFE709480390054803A910
:10415000FCF7DCFC002803D0FFE7FCF7BBFCFFE723
:1041600006B010BDB0000020002401400000024451
:104170000000044880B582B0FFE70A4802680121C8
:104180000A4302600068084001900198FFE7092097
:10419000009000221146FDF73AFF0098FDF72CFF32
:1041A00002B080BD38100240B0B590B000200F9032
:1041B0000E900D900C900B90FFE72D4802680421A3
:1041C0000A430260006808400A900A98FFE7FFE788
:1041D0002748026801210A430260006808400990EC
:1041E0000998FFE7FFE72248026802210A430260BC
:1041F0000068084008900898FFE7012204929103A4
:1042000001911C480290FDF75FFE049A052000070B
:104210000390194D2946FDF757FE049A174806905A
:10422000C0242146FDF750FE019A029804990B9292
:104230000C91002105910D910E910BA90791FDF7AD
:10424000B3FC0398049B059A07990B950C930D9268
:104250000E92FDF7A9FC049B059A069807990B940A
:104260000C930D920E92FDF79FFC10B0B0BDC046AE
:104270003410024000080050F98000000004005093
:1042800080B5D74809490160254941600021816016
:104290006322C26001618161FEF744FC002803D003
:1042A000FFE7FCF717FCFFE780BDC0460020004099
:1042B00080B582B0CE4801900A490160184941603A
:1042C000002181606322C260016141618161FEF76A
:1042D00029FC002803D0FFE7FCF7FCFBFFE702B056
:1042E00080BDC0460044014080B582B0C448019002
:1042F0000A4901600A494160002181601D22C260B3
:10430000016141618161FEF70DFC002803D0FFE7E8
:10431000FCF7E0FBFFE702B080BDC046004801406B
:104320003F1F000080B59AB00020019019901890AE
:104330001790169015901490139012901190109061
:1043400003A83421FBF756FF0199B4480290F34AC1
:10435000026041608160FF22E032C2600161416120
:104360008161FFF7B7FA002803D0FFE7FCF7B2FB43
:10437000FFE70020179018901990A84817A9FEF79A
:1043800067FB002803D0FFE7FCF7A4FBFFE76020F2
:104390001090F0201190002012901390149015901E
:1043A00016909E4810A90822FFF798F9002803D01C
:1043B000FFE7FCF78FFBFFE70020009003900490DD
:1043C00005900690079001214A03089209900A90EF
:1043D0000B9049060C910D900E900F908F4803A9F9
:1043E000FEF7A4FA002803D0FFE7FCF773FBFFE712
:1043F0008A48FFF741F91AB080BDC04680B588B041
:104400000021009107910691059104910391029179
:1044100001918648C24A0260174A42608160174A89
:10442000C26001618161FEF7C9FD002803D0FFE78A
:10443000FCF750FBFFE70020059007907B4805A99B
:10444000FEF706FB002803D0FFE7FCF743FBFFE77E
:1044500000200190012102910390042004907348F0
:1044600001A90822FEF710FD002803D0FFE7FCF7A2
:1044700031FBFFE708B080BDAF040000DF2E000075
:10448000FFE7FEE77047000080B582B001A9002079
:104490000870FFE701A80078042811D8FFE701A8F9
:1044A00001788A00144880584A001449895A002229
:1044B000FFF700FDFFE70198401C01A90870E9E73C
:1044C00002B080BD80B582B0024601A802706A4683
:1044D0001170007804280DD8FFE701A801788A0040
:1044E000054880584A000549895A6A461278FFF7FC
:1044F000E1FCFFE702B080BD040000204452000848
:104500007047000080B584B002900298401E000EF3
:10451000002803D0FFE70120039011E00298401E1D
:104520000949086000200190C043032100F0B8FC55
:10453000019806490860064A072111600390FFE7C9
:10454000039804B080BDC04614E000E018E000E02D
:1045500010E000E080B5FDF7D1FC80BD80B58EB0E5
:10456000002001900D900C900B900A9009900890FB
:104570000790069005900490039002900221079105
:10458000012109020A910B9040200C9007A8FDF729
:10459000A5FF002803D0FFE7FCF79CFAFFE7072000
:1045A00002900020039004900590069002A801213B
:1045B000FDF718FE002803D0FFE7FCF78BFAFFE7B2
:1045C0000EB080BD0120C006014908607047C0469A
:1045D00008ED00E080B50248FEF71CFF80BDC04634
:1045E000BC01002080B50248FEF714FF80BDC04624
:1045F0000802002080B50248FEF70CFF80BDC046CF
:104600005402002080B50548FEF704FF80BDC04677
:1046100080B50248FEF7FEFE80BDC0467001002056
:1046200080B50248FEF7F6FE80BDC046A00200201D
:1046300083B0029001910298006800900298C449EA
:10464000884205D0FFE70298354988420AD1FFE742
:1046500000987021884300900198416800980843B1
:104660000090FFE70298BA49884214D0FFE7029809
:104670002B4988420FD0FFE702982A4988420AD086
:10468000FFE70298B349884205D0FFE70298F7494F
:1046900088420BD1FFE7009803210902884300906C
:1046A0000198C168009808430090FFE700988021B6
:1046B000884301994969084300900098029908606D
:1046C000019880680299C86201980068029988621E
:1046D0000298E44988420AD0FFE70298E2498842FA
:1046E00005D0FFE70298E149884205D1FFE701982C
:1046F000006902990863FFE7029901204861029866
:104700000069C007002806D0FFE702990869012266
:1047100090430861FFE703B07047C046002C01409A
:10472000000400400020004084B0039002910192F8
:10473000029A1F210A40012090400090009B039A9A
:10474000106A98431062019A0298084082400399C7
:10475000086A1043086204B07047000085B00490F6
:1047600003910498006A01900499086A0122904319
:10477000086204984068009004988069029002984A
:10478000B749084002900298032188430290039899
:104790000168029808430290019802218843019021
:1047A000039881680198084301900498DC49884285
:1047B0000AD0FFE70498DB49884205D0FFE7049858
:1047C000D94988420ED1FFE701980821884301901A
:1047D0000398C16801980843019001980421884317
:1047E0000190FFE70498CE4988420AD0FFE7049879
:1047F000F749884205D0FFE70498F649884214D16A
:10480000FFE7009801210A029043009000984902B6
:1048100088430090039841690098084300900398EA
:104820008169009808430090FFE700980499486068
:104830000298049988610398406804994863019834
:104840000499086205B0704785B0049003910498FC
:10485000006A01900499086A102290430862049843
:10486000406800900498806902900298AB49084023
:10487000029002980321090288430290039800687D
:104880000102029808430290019820218843019078
:104890000398806801010198084301900498F74942
:1048A000884212D0FFE70498F549884204D1FFE717
:1048B0000020002809D1FFE70498F249884213D16B
:1048C000FFE7012000280FD1FFE7019880218843EE
:1048D00001900398C0680101019808430190019874
:1048E000402188430190FFE70498E44988420AD0B8
:1048F000FFE70498E249884205D0FFE70498E149C0
:10490000884216D1FFE7009801218A029043009067
:104910000098C9028843009003984069810000987C
:104920000843009003988069810000980843009034
:10493000FFE70098049948600298049988610398F9
:1049400040680499886301980499086205B070472B
:10495000002C01400044014085B00490039104986C
:10496000006A0190049A106A01210B0298431062B8
:104970000498406800900498C06902900298934A95
:10498000104002900298032290430290039802681C
:1049900002981043029001984902884301900398BD
:1049A000806801020198084301900498DC4988421C
:1049B00012D0FFE70498B249884204D1FFE70020F3
:1049C000002809D1FFE70498AE49884214D1FFE7D7
:1049D0000120002810D1FFE701980121CA0290436D
:1049E00001900398C0680202019810430190019859
:1049F000890288430190FFE70498C94988420AD098
:104A0000FFE704989E49884205D0FFE704989D4936
:104A1000884216D1FFE7009801210A0390430090D5
:104A20000098490388430090039840690101009869
:104A300008430090039880690101009808430090A2
:104A4000FFE700980499486002980499C8610398A8
:104A500040680499C86301980499086205B07047DA
:104A60008FFFFEFF002C0140004401400048014040
:104A700085B0049003910498006A0190049A106A2A
:104A800001210B0398431062049840680090049839
:104A9000C06902900298784A10400290029803225E
:104AA0001202904302900398006802020298104399
:104AB000029001984903884301900398806801039C
:104AC0000198084301900498954988420AD0FFE76D
:104AD00004986B49884205D0FFE7049869498842E9
:104AE0000CD1FFE7009801218903884300900398C7
:104AF00040698101009808430090FFE700980499FD
:104B0000486002980499C861039840680499086451
:104B100001980499086205B07047C046FF8FFFFEF8
:104B2000002C0140004401400048014085B0049041
:104B300003910498006A0190049A106A01210B0401
:104B4000984310620498406800900498406D029069
:104B500002981E4A1040029003980268029810437F
:104B600002900198490488430190039880680104E9
:104B70000198084301900498694988420AD0FFE7E8
:104B800004983F49884205D0FFE704983D49884290
:104B90000CD1FFE700980121090488430090039895
:104BA00040690102009808430090FFE700980499CB
:104BB000486002980499486503984068049988659C
:104BC00001980499086205B07047C0468FFFFEFF48
:104BD000004401400048014085B0049003910498CE
:104BE000006A0190049A106A01210B059843106233
:104BF0000498406800900498406D029002981E4A04
:104C0000104002900398006802020298104302903C
:104C1000019849058843019003988068010501982F
:104C20000843019004983E4988420AD0FFE704985F
:104C30001349884205D0FFE70498124988420CD1F5
:104C4000FFE7009801218904884300900398406998
:104C50008102009808430090FFE70098049948609B
:104C6000029804994865039840680499C8650198BA
:104C70000499086205B07047FF8FFFFE002C0140C9
:104C8000004401400048014087B00690059104921D
:104C900003930698006A0190069A116A01208143E5
:104CA000116206998969029106991D4A9142009004
:104CB00007D0FFE706981B49401841424841009041
:104CC000FFE70098C007002809D0FFE702980321FA
:104CD00088430290049902980843029004E00298E5
:104CE000012108430290FFE70298F02188430290D7
:104CF00003980001C1B202980843029001990A206A
:104D0000814301910599014001980843019002985F
:104D10000699886101980699086207B07047C046F5
:104D2000002C014000FCFFBF86B005900491039267
:104D300002930598006A00900599086A1022904332
:104D4000086205988069019001980321090288434F
:104D500001900398010201980843019001980F21E6
:104D60000903884301900298000381B20198084327
:104D700001900099A020814300910499090101400C
:104D8000009808430090019805998861009805995A
:104D9000086206B0704786B00590049103920293B2
:104DA0000598006A00900599086A01221202904352
:104DB00008620598C0690190019803218843019019
:104DC00003990198084301900198F02188430190CC
:104DD00002980001C1B20198084301900099052092
:104DE0004002814300910499090201400098084360
:104DF000009001980599C86100980599086206B06D
:104E0000704786B005900491039202930598006A5A
:104E100000900599086A01221203904308620598E0
:104E2000C069019001980321090288430190039809
:104E3000010201980843019001980F21090388435A
:104E400001900298000381B20198084301900099F3
:104E50000520400381430091049909030140009813
:104E60000843009001980599C86100980599086267
:104E700006B0704781B00146684601700021405677
:104E8000002809D4FFE7684601781F20014001206F
:104E9000884002490860FFE701B0704700E100E088
:104EA00070B582B0024601A8027000910021405600
:104EB000002816D4FFE7002401A908570322D34392
:104EC0001840174A805809578C07E50EFF24AC405C
:104ED000A043009CA401E4B2AC4020431940885098
:104EE0001AE001A908780F24204008380322D34390
:104EF00018400A4A8058002549578D07EE0EFF25B5
:104F0000B540A843009DAD01EDB2B5402843214016
:104F1000083919408850FFE702B070BD1CED00E071
:104F200000E400E080B582B000200190FCF7F0FFC3
:104F3000FFF714FBFFF738F9FFF71CF9FFF7CAF882
:104F4000FFF7F0F9FFF75AFAFFF79AF9FFF7B0F910
:104F5000FFF7CAF9114812491622FCF7D7FB0028BF
:104F600003D0FFE7FBF7B6FDFFE70E4800900021F6
:104F7000FEF73AFD00980821FEF7DCF80A48FDF735
:104F80008BFE0A48FDF788FE0948FDF785FEFEF70F
:104F90006FFFFFE7FBF7E8FCFCE7C046B00000202E
:104FA00084000020A0020020BC0100200802002094
:104FB0005402002080B584B0FFE7144802900068D6
:104FC00013490191FBF718F9019902460298521E04
:104FD000104B03931B68DA620068FBF70DF9039925
:104FE000401EC860FFE709480068FBF7DDFA0A4980
:104FF000FBF7E6F9FBF794FA014606480268D1632D
:105000000821FEF7F1FC04B080BDC046000000207E
:10501000C8A901007001002000AB1F4810B500F0C6
:1050200015F8EFF30080800001D5012010BD0020AD
:1050300010BD10B500F03CF8EFF300804000800F89
:10504000012801D0012010BD002010BD70B5012540
:105050002D050C001C4310D4EC4206D4AC420AD4FB
:10506000994200D070BD904270BDE94217D4EB4226
:1050700015D4994270BD894270BDEC4206D5AC4250
:10508000F9D58B4200D070BD824270BD6D004C00DE
:10509000EC4204D25C00EC4201D28B4270BD034C66
:1050A00030B4FBF785FA30BC70BD00BF19001304A3
:1050B00070B501252D050C001C4310D4EC4206D41C
:1050C000AC420AD4994200D070BD904270BDE94212
:1050D00017D4EB4215D4994270BD894270BDEC42A1
:1050E00006D5AC42F9D58B4200D070BD824270BD6E
:1050F0006D004C00EC4204D25C00EC4201D28B42C9
:1051000070BD034C30B4FBF753FA30BC70BD00BF28
:105110001900160470B5420064414B005C41120E48
:1051200039D01B0E38D0FF2A3CD0FF2B3AD0D218F2
:105130007F3A40024902400A490A4518ED0106003B
:105140004E43000A090A48430104731A4019190C16
:105150004318990F04D05B08012149075B1A521CC0
:10516000D80904D3401CF50301D19D0607D0FF2ABE
:1051700008D2D50506D0E4072043401970BD0125AB
:10518000A843F4E7002A01DCE00770BD2402FF20F9
:105190002043C00570BD1B0EFF2A03D0FF2B01D09A
:1051A000E00770BDFF2636064500B54206D84D0023
:1051B000B54203D8D218FF2A00D0E7E7004870BDF7
:1051C0000000C07F8182838485868788898B8C8D4F
:1051D0008E8F919293959697999A9C9D9FA0A2A34A
:1051E000A5A7A8AAACAEB0B2B3B5B7B9BCBEC0C291
:1051F000C5C7C9CCCED1D4D7D9DCDFE2E6E9ECF023
:10520000F3F7FAFE000000000000000000000000BC
:10521000000000000000000000000000000000008E
:105220000000000001000000020000000300000078
:105230000400000006000000070000000800000055
:10524000090000000800100020004000800000005D
:105250007052000800000020200000001C0100081F
:105260009052000820000020D80800003C010008EF
:10527000001BB7000000005000000050000000506C
:105280000000005000000050010000000400000079
:04000005080000C12E
:00000001FF
