:020000040800F2
:10000000380D00209D01000815370008D93200087E
:1000100000000000000000000000000000000000E0
:10002000000000000000000000000000953A0008F9
:10003000000000000000000019370008F93B00082C
:10004000AF010008AF010008AF010008AF010008D0
:10005000AF010008AF010008AF010008AF010008C0
:1000600000000000C9090008AF010008AF01000846
:10007000D5070008853C0008953C0008A53C000811
:10008000AF010008AF010008AF010008AF01000890
:1000900000000000AF010008AF010008AF01000838
:1000A000AF010008AF010008AF010008AF01000870
:1000B000AF010008AF0100080000000000000000D0
:1000C00000F002F800F03EF80CA030C80838241800
:1000D0002D18A246671EAB4654465D46AC4201D180
:1000E00000F030F87E460F3E0FCCB6460126334274
:1000F00000D0FB1AA246AB46334318472448000001
:1001000044480000103A02D378C878C1FAD85207A0
:1001100001D330C830C101D504680C6070470000BD
:100120000023002400250026103A01D378C1FBD813
:10013000520700D330C100D50B6070471FB51FBDFB
:1001400010B510BD00F0E4FA1146FFF7F7FF04F018
:100150007BFA00F0FCFA03B4FFF7F2FF03BC00F0F7
:1001600031FB000070B505460C46164602E00FCC88
:100170000FC5103E102EFAD2082E02D303CC03C5B1
:10018000083E042E07D301CC01C5361F03E02178B9
:100190002970641C6D1C761EF9D270BD074880471B
:1001A00007480047FEE7FEE7FEE7FEE7FEE7FEE75B
:1001B00004480549054A064B70470000813C000889
:1001C000C100000838070020380D00203809002041
:1001D00038090020F8B5042A2CD3830712D00B78F5
:1001E000491C0370401C521E83070BD00B78491C1E
:1001F0000370401C521E830704D00B78491C037007
:10020000401C521E8B079B0F05D0C91ADF0020230C
:10021000DE1B08C90AE0FFF7A5FFF8BD1D4608C9A7
:10022000FD401C46B4402C4310C0121F042AF5D2D6
:10023000F308C91A521EF0D40B78491C0370401CF5
:10024000521EEAD40B78491C0370401C012AE4D4E6
:1002500009780170F8BD01E004C0091F0429FBD230
:100260008B0701D50280801CC90700D0027070473F
:1002700000290BD0C30702D00270401C491E02297E
:1002800004D3830702D50280801C891EE3E7002285
:10029000EEE70022DFE7002203098B422CD3030A9A
:1002A0008B4211D300239C464EE003460B433CD4C3
:1002B000002243088B4231D303098B421CD3030A2B
:1002C0008B4201D394463FE0C3098B4201D3CB015B
:1002D000C01A524183098B4201D38B01C01A52418B
:1002E00043098B4201D34B01C01A524103098B428F
:1002F00001D30B01C01A5241C3088B4201D3CB007A
:10030000C01A524183088B4201D38B00C01A52415C
:1003100043088B4201D34B00C01A5241411A00D20C
:1003200001465241104670475DE0CA0F00D0494275
:10033000031000D34042534000229C4603098B42E5
:100340002DD3030A8B4212D3FC22890112BA030A6D
:100350008B420CD3890192118B4208D389019211EF
:100360008B4204D389013AD0921100E08909C30974
:100370008B4201D3CB01C01A524183098B4201D376
:100380008B01C01A524143098B4201D34B01C01A61
:10039000524103098B4201D30B01C01A5241C308D9
:1003A0008B4201D3CB00C01A524183088B4201D348
:1003B0008B00C01A5241D9D243088B4201D34B0063
:1003C000C01A5241411A00D20146634652415B10A5
:1003D000104601D34042002B00D549427047634686
:1003E0005B1000D3404201B50020C046C04602BDAC
:1003F00070477047704700000121C905012341186B
:1004000042001B06D3185B0E0AD0C1100722D20689
:10041000891840075242D14201D5520089187047CD
:10042000090208D50146002A03D0C10FC9070020E0
:10043000704710467047420202D0002002497047C0
:10044000072109050143F4E70000F87FF0B5FF2517
:100450002D04C609C209FF2704462E400137CB09E7
:100460003E4348402A402B400746002A6BD0002BD1
:1004700069D0AA4267D0AB4265D0002800DA324684
:100480000125ED0529432C4309022002090AD21A4D
:100490004B0C7F24E31A434C000A7C44E35C7D242C
:1004A0002404121914145B00A218884201D3521CB0
:1004B00000E0400049420C465C4324115C43DB01F0
:1004C0006415E318040A5C43C502200D0C4644433E
:1004D0006419250A5D432303EC0C0D4665430003B4
:1004E0000019EB184C42A34201D35B18401CD40501
:1004F0002018002B07D05B00C91804D3401C00292A
:1005000001D1400840003F2189048A4209D3002AD2
:1005100008DC1106090F04D0032149074018C00F59
:10052000C007F0BD01224100120689187F22520641
:100530009142F6D205214907C84201D59010F0BD7D
:10054000FF20C005F0BD002F00DA32461648AA424F
:1005500007D2AB4205D21902090E17D0F80FC00717
:10056000F0BDFF2563002D06AB42F9D84900A94232
:10057000F6D8AB4201D1A942F2D0A94201D1002163
:1005800001E061004908D0050843F0BD1102090EE1
:10059000FBD0FF200243D005F0BD0A4601461046BD
:1005A00054E700003F4400000000C07F0102C21574
:1005B00004D00123DB071943002A0ADB9E239A1A81
:1005C00002D40846D0407047FF22410012069142F3
:1005D00001D900207047C017C04370471F22030C89
:1005E00002D10F2200041CD0030E01D10002083AF0
:1005F000030F01D10001121F830F01D18000921E51
:10060000002801DB4000521ED20551180212511879
:100610001922904004D3491C002801D149084900FF
:1006200008467047C10FC90700D040420122920717
:100630001143D3E701218907D0E70000F8B5224C28
:100640004E00069DA6420AD8A64201D1002806D136
:100650005E00A64203D8A6420AD1002A08D00D2483
:10066000240425422CD02946002000F02FF8F8BDA4
:100670000C461C430CD4994202D0EFF30080F8BD25
:10068000904202D0EFF30080F8BDEFF30080F8BD98
:1006900009242407E5008B4206D0EFF30080A04335
:1006A000591A06D2284304E0101A05D3EFF300804C
:1006B000A04380F30088F8BDEFF30080A043F1E78A
:1006C000009500F01BF8F8BD0000E0FFC80212D54D
:1006D0004803400F002804D0C803C04301218840CC
:1006E0007047EFF300800001000903210907084368
:1006F00080F30088704700207047000010B500208C
:100700000249029A00F02BF810BD00000000F87FAB
:10071000754600F053F8AE46050069465346C008DA
:10072000C000854618B020B5FFF742FD60BC002729
:100730004908B6460026C0C5C0C5C0C5C0C5C0C5AD
:10074000C0C5C0C5C0C5403D49008D46704710B505
:100750000446C046C0462046FFF7FDFC10BD10B55C
:100760000C461107090F092904D00A290AD00829C3
:100770000CD104E011460820FFF7A8FF06E051065F
:1007800006D501E0510601D50120C007214610BD64
:10079000D10607D501010909CC084907000E00065A
:1007A000044309E0410F20024907000A0143200EDB
:1007B00000061D22D14101430846E7E70048704783
:1007C000D806002001491820ABBEFEE72600020033
:1007D0007047000010B5024800F00FFB10BD00008C
:1007E000C800002070B50546AC6AA06D50210840D5
:1007F000002831D1A06D012149020843A06520687D
:1008000002F0B5FD002823D0A07E002820D120686A
:1008100000680821084008281AD1206802F0A1FDCC
:1008200000280DD1206840680C2188432168486069
:10083000A06DFF210131884301210843A06507E035
:10084000A06D20210843A065E06D01210843E0650B
:10085000204600F0CFFA0CE0A06D102108400028DF
:1008600003D0204600F0C8FA03E0206D416B284613
:10087000884770BD70B50546AC6AA06D402108433D
:10088000A065E06D04210843E065204600F0B4FA5D
:1008900070BD70B50446A56A284600F0ACFA70BD7C
:1008A00038B5044600200090206802F04BFD002877
:1008B00058D1206880682C490840002809D0A06DD4
:1008C00010210843A065E06D01210843E065012087
:1008D00038BD206802F028FD244802F02DFD0121DA
:1008E000C905084000280DD0214922480068FFF7BB
:1008F000D2FC401C009002E00098401E009000983E
:100900000028F9D1607E01282CD000F0B7FF054601
:100910001FE0206802F016FD002802D1206802F0D6
:1009200003FD00F0ABFF401B022812D920680068CD
:10093000C007C00F012148404840002809D1A06DE0
:1009400010210843A065E06D01210843E065012006
:10095000BEE720680068C007C00F0121484048403A
:100960000028D6D00020B3E71700008008270140F8
:10097000400D03004000002010B500F07FFF04464A
:100980000F480068201A7D21C900884209D90D4806
:100990000078002805D102F07FFC01200949087089
:1009A0000DE007480068201A7D21C900884206D85A
:1009B00004480078002802D000200249087010BDC9
:1009C000200000200000002010B5024800F004FDC7
:1009D00010BD00002C01002070B50446206C80087A
:1009E00080000949401860642178084608381421BD
:1009F000FFF751FC054604488030A064E906C90EA3
:100A000001208840E06470BD000802400279910630
:100A1000890E4A1E9200064BD2180265044A4032E3
:100A200042654A1E93079B0F01229A4082657047D8
:100A30000009024070B5856CC46C6C60046D002CBC
:100A400002D0456D846D6C600C4C64681C26056C8E
:100A500035400126AE403443084D6C600468636045
:100A60008468102C04D10468A2600468E16003E08B
:100A70000468A1600468E26070BD000000000240EC
:100A800072B600BFFEE770477047704770470000BE
:100A9000F0B585B005460C46002003900290012178
:100AA000C9072869884203D0091D2869884200D1F6
:100AB00000E000BF00BF5420405D012802D10220A9
:100AC00005B0F0BD01215420415500BF286802F057
:100AD00048FC002876D16068022874D00121C9073B
:100AE0002869884203D0091D2869884208D12868EE
:100AF0002168826A4B035B0B1A43826200BFC6E027
:100B00002179CA06D20E0F219140286E88432168B0
:100B10004903490B002905D11F2292062168114083
:100B2000890E92E02178C907C90F002901D0002160
:100B30008BE0022221681140022901D1012184E0C9
:100B4000042221681140042901D102217DE00822FC
:100B500021681140082901D1032176E01022216883
:100B60001140102901D104216FE020222168114099
:100B7000202901D1052168E0402221681140402947
:100B800001D1062161E0802221681140802901D134
:100B900007215AE0FF22013221681140914201D120
:100BA000082152E00122520221681140914201D1F4
:100BB00009214AE00122920221681140914203D1A9
:100BC0000A2142E0FAE0BAE00122D2022168114093
:100BD000914201D10B2138E001221203216811401A
:100BE000914201D10C2130E00122520321681140D1
:100BF000914201D10D2128E0012292032168114088
:100C0000914201D10E2120E00122D203216811403E
:100C1000914201D10F2118E00122120421681140F4
:100C2000914201D1102110E00122520421681140AB
:100C3000914201D1112108E0012292042168114062
:100C4000914201D1122100E000212279D206D20E78
:100C500091400843286660688008401CE969884222
:100C600015D82868226861680192836ACF06FF0E52
:100C70000F22BA4093430F27BF06019A3A40920EC3
:100C8000CF06FF0EBA401343836200BF00BF28683F
:100C900021680091A16801914269009909028A4383
:100CA00000990B024C4F019939400B401A434261A5
:100CB00000BF2068C00FC007002821D0474802F0BD
:100CC0003BFB06464649206888421AD1C0023040A4
:100CD000002816D1C80230430146404802F05AFBB2
:100CE000404941480068FFF7D6FA401C0C214843B0
:100CF000029002E00298401E029002980028F9D16A
:100D000062E03A49206888420AD1800230400028D7
:100D100006D1880230430146304802F03BFB53E0E5
:100D20003349206888424FD14002304000284BD1DF
:100D3000480230430146294802F02CFB44E00121DF
:100D4000C9072869884203D0091D2869884208D14B
:100D500028682168826A4B035B0B9A43826200BF5A
:100D600000BF2068C00FC00700282DD01B4802F02C
:100D7000E3FA06461A492068884207D1C202304683
:100D800090430146154802F005FB1DE01749206815
:100D9000884207D182023046904301460F4802F054
:100DA000F9FA11E01249206888420DD1420230461A
:100DB00090430146094802F0EDFA05E0A86D2021B4
:100DC0000843A8650120039000BF0021542041552D
:100DD00000BF039874E6000000FFFF0708270140EA
:100DE000001000B0400D030040000020004000B89B
:100DF000002000B4704770477047F8B504460027DC
:100E0000206805682068466802202840022811D121
:100E1000304002280ED1A06D10210840002803D1D7
:100E2000A06DC9010843A0652046FFF72DFE0220F2
:100E30002168086004202840042802D1304004289A
:100E400006D00820284008283AD13040082837D159
:100E5000A06D10210840002803D1A06D490108436E
:100E6000A065206802F083FA002823D0A07E002825
:100E700020D1206800680821084008281AD120687D
:100E800002F06FFA00280DD1206840680C218843D9
:100E900021684860A06DFF2101318843012108438A
:100EA000A06507E0A06D20210843A065E06D012149
:100EB0000843E0652046FFF79DFF0C20216808608D
:100EC0008020284080280DD1304080280AD1A06D94
:100ED000012109040843A065204600F0AFF98020F5
:100EE00021680860FF2001302840FF21013188423D
:100EF0000DD1304088420AD1A06D49020843A06557
:100F00002046FFF7C2FDFF20013021680860012064
:100F1000400228400121490288420DD130408842D8
:100F20000AD1A06D49020843A0652046FFF7AEFD37
:100F300001204002216808601020284010281ED19E
:100F4000304010281BD1206B002801D1012706E07A
:100F50002068C1688907890F002900D00127012F67
:100F60000AD1A06DB9020843A065E06D02210843D3
:100F7000E0652046FFF740FF10202168086001204F
:100F80004003284001214903884209D1304088426A
:100F900006D12046FFF777FD012040032168086055
:100FA000F8BD0000FEB50446002002900025002692
:100FB0000190002C01D10120FEBD3C20005D0128E4
:100FC00000D100BF2069002805D001214905206912
:100FD000884200D100BFA06D002807D1204600F054
:100FE0002FF90020E065002154200155206802F00F
:100FF000B1F9002817D120688168894A114001227F
:1010000012071143816000BF864987480068FFF7D7
:1010100042F9401C4000019002E00198401E0190FE
:1010200001980028F9D1206802F094F9002809D12C
:10103000A06D10210843A065E06D01210843E06523
:1010400001200290206802F08CF90746A06D102163
:10105000084000287ED1002FFCD1A06D09018843F3
:1010600002210843A065206802F06CF9002872D1C3
:10107000217E8903A0680843617EC9030843A17EDD
:1010800049030843216B002902D00121090300E034
:1010900000210843E16808432169C90FC9070029F5
:1010A00003D021694900490801E0012149050843AD
:1010B0002C21095D4900084305432020005D0128DB
:1010C0000ED1A07E002803D101200004054307E0D3
:1010D000A06D20210843A065E06D01210843E06573
:1010E000606A002806D0FF21C131606A0840A16A09
:1010F000084305432068C0684C49084028432168DC
:10110000C8606068800F8007E16C084306433C209C
:10111000005D01280BD16068800F80070121084322
:10112000216C0843616C0843A16C084306432068A6
:1011300000693F490840304321680861032189075D
:101140006068884216D049426068884212D04900DF
:10115000606801E05BE00DE088420BD035488068B4
:101160000F21890488430F229204616811400843CB
:10117000304988600021626B206802F012F92E4924
:10118000A26B206802F00DF92069002807D12068C1
:10119000806A0F21C94308432168886211E0012158
:1011A0004905206988420CD1207F401E4007C10EAE
:1011B0000F20C0438840216E08432168896A216856
:1011C0008862216800200091009949690422024048
:1011D00007239340194004220240D140606B8142B2
:1011E00008D10020E065A06D022188430121084359
:1011F000A06512E0A06D0221884310210843A0657C
:10120000E06D01210843E0650120029005E0A06D3A
:1012100010210843A065012002900298CCE600004E
:10122000E8FFFF7F400D0300400000200102DEFFC9
:1012300002FCFF1F0027014004FFFF07704700006A
:1012400010B586B00446142101A8FFF722F82A49F8
:10125000206888424ED100BF284800680121090556
:10126000084326490860084600680121090508402E
:10127000009000BF00BF00BF20484038406B0221F3
:1012800008431E49403948630846406B0221084024
:10129000009000BF00BF0320019002900020039047
:1012A00001A9174800F0EEF9164817490860052013
:1012B0004860002114488160C160802101614900BB
:1012C0004161890081612021C1610021016200F03A
:1012D00013F9002801D0FFF7D3FB00BF0A482065AF
:1012E000846200BF002211460C2000F053FB0C204A
:1012F00000F03EFB06B010BD00240140401002404B
:1013000000040050080002402C010020F8B50446FB
:101310000E461746206802F024F8002850D100BF7E
:101320005420005D012801D10220F8BD0121542084
:10133000015500BF2068C068084000280DD1206812
:1013400002F000F8002802D0206801F0E5FF2068D4
:10135000C068012108432168C8602046FFF7A0FA51
:101360000546002D2DD1A06D17490840FF21013100
:101370000843A0650020E0651448216DC862144848
:10138000216D08631348216D48631C2021680860A3
:1013900000BF00215420015500BF20684068102183
:1013A0000843216848602268114640313B46324676
:1013B000206D00F001F90546206801F0E3FF00E030
:1013C00002252846B1E70000FEF1FFFFE50700080F
:1013D000930800087508000870B50446454805687C
:1013E000206806681C20216C0140042088402840A9
:1013F000002820D00420304000281CD0206800683D
:1014000020210840002805D1206800680421884375
:1014100021680860374840681C22216C1140042272
:101420008A40104333494860206B002860D0204632
:10143000216B88475CE01C20216C01400220884021
:101440002840002828D002203040002824D02068DE
:10145000006820210840002808D1206800680A217F
:1014600088432168086001212520015521484168F1
:101470001C22206C10400222824011431D48416012
:1014800000BF00212420015500BFE06A00282FD0B2
:101490002046E16A88472BE01C20216C014008208F
:1014A00088402840002823D00820304000281FD042
:1014B000206800680E218843216808600D48416853
:1014C0001C22206C104001228240114309484160D7
:1014D0000120E06301212520015500BF00212420C7
:1014E000015500BF606B002802D02046616B884721
:1014F00070BD00000000024010B50446002C01D170
:10150000012010BD2A4A2168881A1421FEF7C3FE63
:1015100080002064022125200155206800682549AB
:10152000084021680860E168A06808432169084311
:1015300061690843A1690843E1690843216A0843D6
:10154000216809680843216808602046FFF744FACB
:1015500001218903A068884201D1002060602079C0
:101560008006800E616C0860A16CE06C4860606869
:1015700000280CD06068042809D82046FFF746FAF6
:101580000020216D0860616DA06D486003E00020BF
:1015900020656065A0650020E063012125200155DC
:1015A00000BF00212420015500BF0020A9E7000052
:1015B000080002400F80FFFFF8B504460D461646AE
:1015C0001F460020009000BF2420005D012801D1AB
:1015D0000220F8BD01212420015500BF2520005D17
:1015E000012844D10221252001550020E063206814
:1015F000006840084000216808603B4632462946A2
:101600002046FFF717FA206B002806D020680068F4
:101610000E210843216808600BE02068006804215F
:10162000884321680860206800680A21084321680F
:101630000860606C0068012109040840002805D09A
:10164000606C006809120843616C0860206D002816
:1016500006D0206D0068FF2101310843216D08602C
:1016600020680068012108432168086008E08020A4
:10167000E06300BF00212420015500BF012000903D
:101680000098A6E770B503460A460021D7E0012678
:101690008E4014683440002C73D01579AD07AD0F1F
:1016A000012D04D01579AD07AD0F022D18D1986822
:1016B0004E000325B5400646AE4330464E00D56881
:1016C000B54028439860586801258D400646AE43D2
:1016D00030461026556835402D098D402843586006
:1016E0001579AD07AD0F032D0BD0D8684E0003253B
:1016F000B5400646AE4330464E009568B540284397
:10170000D8601579AD07AD0F022D15D1CD08AE000B
:101710001D462035A8594D07EE0E0F25B54006464B
:10172000AE4330464E07F60E1569B5402843CD0846
:10173000AD001E462036705118684E000325B54096
:101740000646AE4330461579AD07AD0F4E00B540A5
:10175000284318600326360455683540002D6DD0A7
:101760003A4D8E08B600A8598D07EE0E0F25B540EC
:101770000646AE43304605252D07AB4202D1002573
:1017800010E05BE0324DAB4201D101250AE0314D62
:10179000AB4201D1022505E02F4DAB4201D103251B
:1017A00000E005258E07F60EB5402843274D8E082C
:1017B000B600A851254D603D28680546A54328463A
:1017C0000126360555683540002D02D005462543D3
:1017D00028461E4D603D286068680546A54328469A
:1017E0000126760555683540002D02D00546254373
:1017F0002846164D603D6860144D203568680546E2
:10180000A54328460126760455683540002D02D0B0
:101810000546254328460D4D203568602868054655
:10182000A54328460126360455683540002D02D0D0
:10183000054625432846054D20352860491C156876
:10184000CD40002D00D022E770BD0000601802409E
:101850000004005000080050000C005010B5426910
:1018600013460B401B040C4694432343836110BD75
:10187000002A01D0816100E0816270470148006860
:1018800070470000340000200348006803490978CD
:101890004018014908607047340000203C000020D7
:1018A00010B5002408480068FF21013108430649AB
:1018B0000860032000F00AF8002801D0012401E0AC
:1018C00000F034F8204610BD00200240F8B5044670
:1018D00000251348007800281ED0114801787D208B
:1018E000C000FEF7D8FC074639460E480068FEF7F0
:1018F000D2FC064600F0FEFD00280BD1042C07D2D6
:1019000000222146401E00F045F80748046004E02C
:10191000012502E0012500E001252846F8BD000070
:101920003C000020400000203800002008B500BF27
:101930000E480068012108430C4908600846006809
:10194000C007C00F009000BF00BF00BF074840386D
:10195000C06B8905084305494039C8630846C06B18
:1019600009040840009000BF00BF08BD40100240BD
:101970000146002909DB00BF00BFCB06DB0E0122B8
:101980009A40034B1A6000BF00BF00BF70470000C1
:1019900000E100E070B504460D4616462946204693
:1019A00002F016FE70BD000070B5044611480068D4
:1019B00003214902884320430E49086048158442A8
:1019C00016D10D4909680622514308460B49FEF716
:1019D00062FC451C05E0002D01D06D1E01E00320D6
:1019E00070BD044840690121890208408842F2D054
:1019F0000020F5E7007000404000002040420F004A
:101A0000FEB5044600270020029001214904206809
:101A1000084088427BD1002001909648C06BC902E3
:101A2000084000280ED100BF9248C06B084391497E
:101A3000C8630846C06B09040840009000BF00BF9F
:101A4000012001908C480068FF21013108438A4938
:101A50000860FFF713FF064606E0FFF70FFF801B45
:101A6000022801D9032706E083480068FF210131DD
:101A700008400028F1D000BF002F4BD17D484030F6
:101A8000C569032109020D40002D1AD0606AA842E1
:101A900017D078484030C0698843054675484030C3
:101AA000C06901210904084372494031C8610846F0
:101AB000C0690121090488436E494031C861084664
:101AC000C561E807C00F002813D0FFF7D7FE064610
:101AD00007E0FFF7D3FE801B6849884201D903273E
:101AE00006E064484030C069022108400028F0D078
:101AF00000BF002F0CD15F484030C06903210902AC
:101B00008843616A08435B494031C86103E00DE0E6
:101B1000029700E002970198012806D15548C06B52
:101B20000121090788435349C86300BF2078C007D3
:101B3000C00F002809D04F4840304069800880001D
:101B4000616808434B4940314861102120680840D2
:101B500010280AD147484030406903218902884350
:101B6000A168084343494031486101214902206886
:101B7000084088420AD13F48403040690321890427
:101B80008843616908433B4940314861012189022A
:101B90002068084088420AD1364840304069032115
:101BA00009058843A1690843324940314861202131
:101BB0002068084020280AD12E484030406903217F
:101BC00009038843E16808432A49403148610121FB
:101BD000890320680840884213D126484030406974
:101BE00080008008E16908432249403148610906C4
:101BF000E069884205D11F48C068891308431D4920
:101C0000C8600121490520680840884214D119485C
:101C10004030406949008843216A084315494031F2
:101C2000486101218905206A884205D11148C068B0
:101C3000890008430F49C8600121C9022068084093
:101C4000884215D10B4840304069032189038843FD
:101C5000216908430749403148610121890320690E
:101C6000884205D10348C068890008430149C8601B
:101C70000298FEBD00100240007000408813000072
:101C800070B504460D46002C01D1012070BD6B4893
:101C900000684007400FA84218D268480068C00892
:101CA000C000284365490860FFF7E8FD064607E0E5
:101CB000FFF7E4FD801B6249884201D90320E5E774
:101CC0005E4800684007400FA842F1D10221206819
:101CD0000840022815D1042120680840042807D1B3
:101CE000584880680721090388434018554988608F
:101CF000544880680F2109028843A168084351496C
:101D000088602078C007C00F002854D06068012880
:101D100008D14C48006801214904084000282ED110
:101D20000120B3E76068022808D146480068012115
:101D300049060840002822D10120A7E76068002852
:101D400008D140480068012189020840002816D1C6
:101D500001209BE76068032808D13A484030006AB8
:101D60000221084000280AD101208FE73548403081
:101D7000C06902210840002801D1012086E73148CE
:101D80008068C008C000616808432E498860FFF77A
:101D900075FD064607E0FFF771FD801B2849884264
:101DA00001D9032072E7274880683821084061681C
:101DB000C9008842EFD1214800684007400FA8427F
:101DC00018D91E480068C008C00028431B49086095
:101DD000FFF754FD064607E0FFF750FD801B18494A
:101DE000884201D9032051E7144800684007400F9A
:101DF000A842F1D1042120680840042808D11148E4
:101E00008068072109038843E16808430D49886019
:101E100000F020F80B4989680F2212021140090ACC
:101E20008900094A515CC906C90EC84007490860C3
:101E300007480068FFF74AFD28E70000002002403D
:101E400088130000001002404C48000840000020A9
:101E500038000020FEB53548806838210840002849
:101E60000DD13248006809020840C10A01208840AB
:101E700000902F480099FEF70EFA044654E02B48D4
:101E8000806838210840082801D12A4C4CE02748B6
:101E9000806838210840102834D12448C06886075B
:101EA000B60F2248C068702108400009401C01900C
:101EB000022E0FD0032E0CD11E480199FEF7EBF92C
:101EC0001A49C9687F2212021140090A484305468F
:101ED0000DE000BF16480199FEF7DDF91349C96806
:101EE0007F2212021140090A4843054600BF00BF85
:101EF0000E48C068400F471C39462846FEF7CBF90C
:101F0000044611E00948806838210840202801D1A2
:101F1000840209E00548806838210840182802D169
:101F20007D24240200E000242046FEBD0010024073
:101F30000024F40000127A00FEB50446002C01D102
:101F40000120FEBD2078C007C00F00286FD0F748E1
:101F5000876838210F40C0688607B60F102F01D15F
:101F6000032E01D0082F0BD1F0480068012149044D
:101F7000084000285BD06068002858D10120E0E7C5
:101F800000BF012109046068884205D1E748006864
:101F90000843E649086021E0052109046068884299
:101FA0000ED1E2480068012189040843DF49086036
:101FB00008460068012109040843DC4908600DE077
:101FC000DA480068012109048843D84908600846B6
:101FD0000068012189048843D449086000BF606813
:101FE000002812D0FFF74AFC054606E0FFF746FC42
:101FF000401B642801D90320A3E7CC4800680121D5
:10200000490408400028F1D011E0FFF737FC0546ED
:1020100006E0FFF733FC401B642801D9032090E75A
:10202000C24800680121490408400028F1D102217A
:1020300020680840022873D1BC48806838210840D5
:102040000746BA48C0688607B60F102F01D1022E86
:1020500001D0002F36D1B54800680121890208401F
:10206000002804D0E068002801D1012069E7AF48CA
:1020700040687F2109028843616909020843AB492E
:102080004860002F16D1084600680721C90288431E
:1020900021690843A5490860084600680722D20262
:1020A0001040C20A012090400146A148FEF7F3F813
:1020B000A0490860A0480068FFF708FC002849D044
:1020C00001203EE7E06800282BD0984800680721EF
:1020D000C90288432169084394490860084600689A
:1020E0008915084391490860FFF7C8FB054606E0DB
:1020F000FFF7C4FB401B022801D9032021E78B48CE
:1021000000680121890208400028F1D08748406812
:102110007F210902884361690902084383494860B5
:1021200018E082480068FF21013188437F49086038
:10213000FFF7A4FB054606E0FFF7A0FB401B0228C3
:1021400001D90320FDE67948006801218902084091
:102150000028F1D1082120680840082849D1734897
:1021600080683821084018280BD170484030006A38
:102170000221084000283CD0A069002839D1012064
:10218000DFE6A06900281AD068484030006A0121C3
:102190000843664940310862FFF770FB054606E0D8
:1021A000FFF76CFB401B022801D90320C9E65F48FA
:1021B0004030006A022108400028F1D019E05B4855
:1021C0004030006A40084000584940310862FFF73B
:1021D00055FB054606E0FFF751FB401B022801D9DD
:1021E0000320AEE651484030006A02210840002832
:1021F000F1D104212068084004287CD100200190FE
:102200004A4880683821084020280BD14748403090
:10221000C0690221084000286ED0A06800286BD158
:1022200001208EE64148C06B010F01208843002841
:1022300010D000BF3D48C06B0121090708433B494E
:10224000C8630846C06B09040840009000BF00BF87
:102250000120019039480068FF2101310840002821
:1022600016D136480068084334490860FFF706FB7A
:10227000054606E0FFF702FB401B022801D90320B8
:102280005FE62E480068FF21013108400028F1D0A8
:1022900000BFA068012808D124484030C06901214E
:1022A000084322494031C86120E0A06805280FD1C9
:1022B0001E484030C069042108431C494031C861B0
:1022C0000846C0690121084318494031C8610DE042
:1022D00016484030C0694108490014484030C16187
:1022E000C0690421884311494031C86100BFA0681A
:1022F000002816D001E040E03EE0FFF7BFFA0546B7
:1023000007E0FFF7BBFA401B0D49884201D90320C3
:1023100017E606484030C069022108400028F0D086
:102320001EE0FFF7ABFA054614E000000010024083
:102330000024F4004000002038000020007000401D
:1023400088130000FFF79AFA401B6649884201D9BA
:102350000320F6E56448C069022108400028F1D155
:102360000198012808D160484038C06B0121090755
:1023700088435D494039C86300BFE06900285CD0EC
:102380005948403880683821084010287CD0E069DE
:10239000022853D154484038006801210906884377
:1023A000514940390860FFF769FA054606E0FFF732
:1023B00065FA401B022801D90320C2E54A4840388B
:1023C00000680121490608400028F0D1616A206AAE
:1023D0000843A16A09020843E16A0843216B0843E4
:1023E000616B084340494039C968404A114008437D
:1023F0003D494039C8600846006801210906084384
:102400003949403908600846C0680904084336491C
:102410004039C860FFF732FA054606E0FFF72EFAAA
:10242000401B022801D903208BE52F484038006863
:102430000121490608400028F0D050E02A484038E1
:102440000068012109068843274940390860FFF7E1
:1024500015FA054606E0FFF711FA401B022801D9DC
:1024600003206EE5204840380068012149060840F5
:102470000028F0D11C484038C0681D4908401A495E
:102480004039C8602BE0FFE7E069012800D158E53A
:1024900015484038C668B107890F206A81421CD1AF
:1024A00070203040616A884217D17F20000230409E
:1024B000A16A0902884210D11F2040043040E16A1D
:1024C00088420AD1072040063040216B884204D15F
:1024D000710F4907606B814201D0012031E5002076
:1024E0002FE5000088130000401002408C80C111CD
:1024F000FCFFFEEE70B504462546681E0949884279
:1025000001D901200CE0681E074948610321081F1A
:1025100002F05EF80020044988610720086100206D
:1025200070BD0000FFFFFF0000E000E07047704753
:102530007047000010B50346002200BF3C20C05C7D
:10254000012801D1022010BD01243C20C45400BF49
:10255000100A0002CC6820430246104603242402DD
:10256000A0438C682043024610460124A402A043E5
:102570004C682043024610460124E402A0430C6844
:1025800020430246104601242403A0430C69204343
:102590000246104601246403A0434C6920430246CE
:1025A00010460124A403A0430C6B204302461046AE
:1025B0000F242404A0430C8B24042043024610461D
:1025C00001242407A043CC6920430246144C186818
:1025D000A0421CD110460F242405A0430C8D2405D5
:1025E00020430246104601242406A0430C6A2043DF
:1025F0000246104601246406A0434C6A204302466A
:10260000104601246407A043CC6A204302461868A0
:10261000426400BF00243C20C45400BF002092E765
:10262000002C014030B502460B4600BF3C20805CC8
:10263000012801D1022030BD01253C20855400BF76
:1026400002253D2085541068416810688468194D42
:102650001068A84206D10F252D050846A84301465B
:102660005868014370250846A8430146186801438D
:10267000106841600F4D1068A84208D00125AD07D1
:102680001068A84203D00C4D1068A84207D18025DD
:102690002046A843044698680443106884600125D6
:1026A0003D20855400BF00253C20855400BF0020FC
:1026B000C1E70000002C014000040040FEB50446C4
:1026C000012189072068884278D1207F022875D1AE
:1026D0000421204600F08BFD05460026384800689E
:1026E000854203D3364800682E1A05E03449E06875
:1026F0000968401A4019461C002E55D03046FDF797
:1027000099FF3049019002F03DF8074639467F2095
:10271000C005FDF79BFE02900298FDF76DFE0022BA
:10272000294B0191009001F0F9FF0CD20298FDF7BE
:1027300063FE0022254B0191009001F0BDFF02D203
:1027400000F072FD2FE00298FDF756FE0022204BAC
:102750000191009001F0E2FF0CD20298FDF74CFECF
:1027600000221C4B0191009001F0A6FF02D200F064
:1027700077FD18E00298FDF73FFE0022164B01910D
:10278000009001F0CBFF0CD20298FDF735FE00223D
:10279000124B0191009001F08FFF02D200F042FD38
:1027A00001E000F079FD00BFFFF768F80C49086010
:1027B00000200C4908700248056000BFFEBD000003
:1027C0003000002017B7D13700000C400000124045
:1027D00000001E400000214000002F4000803040DB
:1027E0002000002000000020F8B504460D461646E3
:1027F0000020009000BF3C20005D012801D1022094
:10280000F8BD01213C20015500BF002E12D1EB681C
:102810006A682968206801F051FC206880690C21F1
:1028200088432168886120688069A9680843216815
:10283000886143E0042E14D1EB686A682968206837
:1028400001F070FC206880690321890288432168B7
:10285000886120688069A968090208432168886145
:102860002CE0082E12D1EB686A682968206801F014
:102870007DFC2068C0690C2188432168C8612068FC
:10288000C069A96808432168C86117E00C2E13D1FC
:10289000EB686A682968206801F08BFC2068C069D1
:1028A000310288432168C8612068C069A9680902AB
:1028B00008432168C86101E00120009000BF0021A9
:1028C0003C20015500BF00989AE710B50446002C43
:1028D00001D1012010BD3D20005D002805D100215F
:1028E0003C200155204600F026F802213D200155EC
:1028F000211D206801F0DEF901214820015500BFAB
:102900003E2001553F2001554020015541200155F1
:10291000422001554320015500BF00BF442001550E
:1029200045200155462001554720015500BF3D2057
:1029300001550020CEE77047FCB504460D46002740
:10294000002D02D13E20005D15E0042D02D13F2074
:10295000005D10E0082D02D14020005D0BE00C2D41
:1029600002D14120005D06E0102D02D14220005D21
:1029700001E04320005D0190002D02D14420005D64
:102980000BE0042D02D14520005D06E0082D02D1A8
:102990004620005D01E04720005D0090019801287D
:1029A00002D10098012801D00120FCBD002D03D1E7
:1029B00002213E2001551AE0042D03D102213F20BF
:1029C000015514E0082D03D10221402001550EE0ED
:1029D0000C2D03D102214120015508E0102D03D117
:1029E00002214220015502E0022143200155002D21
:1029F00003D10221442001550EE0042D03D1022110
:102A00004520015508E0082D03D10221462001553B
:102A100002E0022147200155002D06D0042D0BD0E5
:102A2000082D10D00C2D1CD114E02068C0680221A4
:102A300008432168C86016E02068C0680421084384
:102A40002168C8600FE02068C06808210843216839
:102A5000C86008E02068C068102108432168C86089
:102A600001E0012700BF00BF002F27D10122294626
:102A7000206801F077F912492068884208D00121C6
:102A800089072068884203D00E49206888420FD108
:102A9000206886680C490E40062E0FD0C81F86425B
:102AA0000CD020680068012108432168086005E017
:102AB000206800680121084321680860384674E7EF
:102AC000002C0140000400400700010070B50446DE
:102AD0002068C6682068056902202840022819D1AC
:102AE0003040022816D1401F21680861012020775C
:102AF000206880698007800F002803D02046FFF7F8
:102B0000DDFD05E0204600F003F9204600F06EFAF6
:102B1000002020770420284004281AD130400428BF
:102B200017D1C0432168086102202077206880699E
:102B3000032109020840002803D02046FFF7BEFD0C
:102B400005E0204600F0E4F8204600F04FFA0020AF
:102B5000207708202840082819D13040082816D1AD
:102B6000C04321680861042020772068C06980077D
:102B7000800F002803D02046FFF7A0FD05E0204687
:102B800000F0C6F8204600F031FA0020207710202F
:102B9000284010281AD13040102817D1C04321688E
:102BA0000861082020772068C069032109020840D5
:102BB000002803D02046FFF781FD05E0204600F005
:102BC000A7F8204600F012FA00202077E807C00F8F
:102BD00000280AD0F007C00F002806D00120C0430B
:102BE00021680861204600F001FB802028408028F1
:102BF00006D001204003284001214903884209D121
:102C000080203040802805D118482168086120467E
:102C1000FFF78DFCFF2001302840FF210131884261
:102C200009D180203040802805D1C843216808613F
:102C30002046FFF77BFC40202840402808D1304048
:102C4000402805D1C04321680861204600F0E9FA18
:102C500020202840202808D13040202805D1C0431A
:102C6000216808612046FFF763FC70BD7FDFFFFF2E
:102C700010B586B00446142101A8FDF70AFB2249CD
:102C8000206888421CD100BF2048406B01210843C6
:102C90001E4948630846406BC007C00F009000BF44
:102CA00000BF88150190022002900020039004903C
:102CB0000220059001A905200007FEF7E3FC20E0B3
:102CC00001218907206888421BD100BF0F48406B53
:102CD000012108430D4948630846406BC007C00FF7
:102CE000009000BF00BF0120019002200290002050
:102CF000039004900220059001A905200007FEF72B
:102D0000C1FC06B010BD0000002C014000100240C4
:102D10007047F8B504460D461646002700BF3C2014
:102D2000005D012801D10220F8BD01213C200155A0
:102D300000BF0C2E54D006DC002E09D0042E1ED06D
:102D4000082E7ED135E0102E64D0142EF9D179E012
:102D50002946206801F018F8206880690821084396
:102D6000216888612068806904218843216888611E
:102D70002068806929690843216888617EE02946C6
:102D8000206801F04FF8206880690121C9020843DA
:102D9000216888612068806901218902884321684F
:102DA000886120688069296909020843216888616F
:102DB00064E02946206801F08BF82068C06908218A
:102DC00008432168C8612068C069042188432168DC
:102DD000C8612068C069296908432168C8614DE05D
:102DE0002946206801F0C8F82068C0690121C9029D
:102DF00008432168C8612068C069012189028843AD
:102E00002168C8612068C0692969090208432168EE
:102E1000C86133E02946206801F0E8F82068406D79
:102E200008210843216848652068406D04218843D3
:102E3000216848652068406D296908432168486514
:102E40001CE019E02946206801F004F92068406D73
:102E50000121C9020843216848652068406D0121AD
:102E600089028843216848652068406D2969090204
:102E700008432168486501E0012700BF00BF00BF8B
:102E800000213C20015500BF38464DE710B50446EF
:102E9000002C01D1012010BD3D20005D002805D18E
:102EA00000213C200155204600F026F802213D205B
:102EB0000155211D206800F0FDFE0121482001552B
:102EC00000BF3E2001553F200155402001554120C3
:102ED0000155422001554320015500BF00BF442049
:102EE000015545200155462001554720015500BF99
:102EF0003D2001550020CEE710B590B004461421C6
:102F00000BA8FDF7C6F9282101A8FDF7C2F935493C
:102F1000206888422BD101204005019000200990B3
:102F200001A8FEF76DFD002801D0FDF7A9FD00BF47
:102F30002D4800680121C90208432B490860084652
:102F40000068C9140840009000BF00BF002211466D
:102F50000D20FEF71FFD0D20FEF70AFD0022114691
:102F60000E20FEF717FD0E20FEF702FD38E00121CE
:102F700089072068884233D100BF1B484038C06BA6
:102F80000121084318494039C8630846C06BC0078F
:102F9000C00F009000BF00BF00BF0846406B01217A
:102FA00008431149403948630846406BC007C00FC9
:102FB000009000BF00BF02200B900C9000200D90ED
:102FC0000E9002200F900BA905200007FEF75AFB78
:102FD000002211460F20FEF7DDFC0F20FEF7C8FC93
:102FE00010B010BD002C014040100240704700009E
:102FF00070B504460D46002D02D13E20005D15E05F
:10300000042D02D13F20005D10E0082D02D14020A8
:10301000005D0BE00C2D02D14120005D06E0102D7B
:1030200002D14220005D01E04320005D012801D073
:10303000012070BD002D03D102213E2001551AE070
:10304000042D03D102213F20015514E0082D03D1A6
:103050000221402001550EE00C2D03D10221412018
:10306000015508E0102D03D102214220015502E054
:1030700002214320015501222946206800F072FEFA
:103080001E492068884207D01D492068884203D025
:103090001C492068884201D1012000E0002000285E
:1030A00006D02068406C0121C903084321684864A8
:1030B00012492068884208D0012189072068884287
:1030C00003D01149206888420FD1206886680F49D3
:1030D0000E40062E0FD0C81F86420CD02068006814
:1030E000012108432168086005E02068006801218B
:1030F00008432168086000209BE70000002C014085
:103100000044014000480140000400400700010065
:1031100030B504460D4600222946206800F022FE04
:103120002E492068884207D02D492068884203D064
:103130002C492068884201D1012000E000200028AD
:1031400014D000BF2068006A2749084000280CD12D
:103150002068006A89100840002806D12068406C69
:103160000121C90388432168486400BF00BF20686B
:10317000006A1D49084000280BD12068006A8910A8
:103180000840002805D120680068400840002168F8
:10319000086000BF002D03D101213E2001551AE037
:1031A000042D03D101213F20015514E0082D03D146
:1031B0000121402001550EE00C2D03D101214120B9
:1031C000015508E0102D03D101214220015502E0F4
:1031D000012143200155002030BD0000002C01409A
:1031E00000440140004801401111000070470246B0
:1031F0000020002906D0042907D0082908D00C296E
:103200000CD108E01368586B09E01368986B06E06E
:103210001368D86B03E01368186C00E000BF00BFB0
:10322000704770477047000010B50A4A00210A48ED
:1032300000F032FC01229103084800F04FF800240E
:1032400005E00221204600F07FFA601CC4B2032C86
:10325000F7DB10BDC8A9010088010020000800505C
:1032600010B50B4A00210B4800F016FC0122D103D7
:103270000520000700F032F8032405E00221204673
:1032800000F062FA601CC4B2052CF7DB10BD000030
:10329000C8A901008801002010B500210B48FFF7E4
:1032A00037FF00F03BFA002201218903084800F0B3
:1032B00015F800220121C9030520000700F00EF8CF
:1032C00001224021034800F009F810BD88010020C8
:1032D000000800500004005000BFFEE770B505462E
:1032E0000E461446002C04D0012C08D0022C11D11B
:1032F0000BE0012231462846FEF7BAFA0AE0002226
:1033000031462846FEF7B4FA04E031462846FEF777
:10331000A5FA00BF00BF70BD8168024A1140891C38
:1033200081607047E8FFFF7F8168024A1140491CB5
:1033300081607047E8FFFF7F014608680722920519
:103340001040704701468868C007C00F01225040F6
:103350005040704701468868012212071040000F54
:103360007047014688680422104080087047014673
:10337000C868032292021040002801D10120704742
:103380000020FCE78168024A1140091D81607047F6
:10339000E8FFFF7F026807239B059A430A43026008
:1033A000704730B5436904240D4625400724AC40DE
:1033B000A34304240C401546A5402B43436130BD74
:1033C0000EB500200090019002902248224908602A
:1033D00000054860002120488160C1600121490545
:1033E000016104214161002101764176012181764C
:1033F0000221C161002141628162012124300172F8
:10340000002124380163416381632430017624382C
:10341000C164FDF7C7FD002801D0FDF731FB0F485F
:10342000009000200190029069460B48FDF730FBA8
:10343000002801D0FDF724FB0948009004200190EA
:1034400069460548FDF724FB002801D0FDF718FB6D
:103450000EBD000000240140C80000200001002033
:103460000002002408B500BF0A48806B0121084310
:10347000084988630846806BC007C00F009000BFF2
:1034800000BF002211460920FEF784FA0920FEF74A
:103490006FFA08BD0010024000B587B0142102A8E1
:1034A000FCF7F7FE00BF3048406B042108432E496B
:1034B00048630846406B04210840019000BF00BFEC
:1034C00000BF2948406B012108432749486308464B
:1034D000406BC007C00F019000BF00BF00BF08468F
:1034E000406B02210843204948630846406B022193
:1034F0000840019000BF00BF012249031B48FEF7AE
:10350000B7F901221A4905200007FEF7B1F9012297
:10351000FF21C1311748FEF7ABF90120800302906B
:103520000120039000200490059002A90F48FEF7A7
:10353000A9F80F4802900120039000200490059004
:1035400002A905200007FEF79DF8FF20C130029078
:103550000120039000200490059002A90548FEF781
:1035600091F807B000BD00000010024000080050B4
:10357000F88000000004005000B597B000201490BF
:10358000159016901C210DA8FCF783FE3421684687
:10359000FCF77FFE2A482B49086000204860002184
:1035A000284881602849C160002101614161816131
:1035B000FFF76CFC002801D0FDF762FA00201490A0
:1035C0001590169014A91F48FFF72CF8002801D079
:1035D000FDF756FA60200D90FF202D300E90002050
:1035E0000F90109011901290139000220DA9154881
:1035F000FFF78FFB002801D0FDF742FA0020009072
:103600000190029003900490012040030590002057
:1036100006900790089001204006099000200A902B
:103620000B900C9069460748FEF784FF002801D0F4
:10363000FDF726FA0348FFF71BFB17B000BD00009B
:10364000002C0140880100205702000000B58FB017
:1036500000200C900D900E901C2105A8FCF719FE7F
:1036600000200190029003900490012080072549DA
:103670000860254848600021224881602349C160D4
:10368000002101618161FFF701FC002801D0FDF7F5
:10369000F7F91C48FFF719F9002801D0FDF7F0F9F8
:1036A00000200C900E900CA91648FEF7BBFF0028D6
:1036B00001D0FDF7E5F9602005901548069000203F
:1036C00007900990002205A90E48FFF722FB002869
:1036D00001D0FDF7D5F900200190012002900020D3
:1036E000039004200490042201A90648FFF77CF807
:1036F000002801D0FDF7C4F90248FFF7B9FA0FB06E
:1037000000BD0000D40100203F060000DF2E0000B5
:103710007017000000BFFEE77047000010B50024DE
:103720000AE06200064B995AA200064B9858002204
:10373000FFF7D4FD601CC4B2052CF2D310BD00000D
:103740003A4800080400002070B504460D46052CD8
:1037500008D26200044B995AA200044B98582A469A
:10376000FFF7BCFD70BD00003A48000804000020CF
:1037700010B500F045FD10BDF8B504460D461646DF
:1037800000BF0E4F3878532801D000F039FD00BF3C
:10379000EFF310800746012080F3108800BF00BFC0
:1037A00032462946204600F00BF80090F8B280F32C
:1037B000108800BF00BF0098F8BD00002002002064
:1037C000F7B582B007461646039801901820784353
:1037D0001B494018009000984069002804D0012837
:1037E00011D0022826D11EE0009800F041FD0546C8
:1037F000B54201D2002405E03446324601990098D2
:1038000000F0BBFE18E0009800F032FD0546B5421E
:1038100001D2284600E0304604462246019900982D
:1038200000F0ABFE08E032460199009800F066FE19
:10383000044601E0002400BF00BF204605B0F0BDF3
:10384000380200200FB438B5044606A800906A4636
:103850002046059900F008F805460020009028460B
:1038600038BC08BC04B01847F7B59AB00D461446EA
:1038700002A8159040201690002017901A981990D1
:103880000020189000BF2E786D1C002E00D1E9E0BA
:10389000252E79D100270120149000BF2E78232EE9
:1038A00012D02B2E0CD02D2E02D0302E10D103E0B2
:1038B000012007436D1C0EE0022007436D1C0AE047
:1038C000042007436D1C06E0082007436D1C02E03E
:1038D0000020149000BF00BF14980028DED1129081
:1038E00000BF2E78302E01DB392E00DD08E06D1C84
:1038F0000A21129848433146303940181290F0E7B7
:1039000000BF002013902E782E2E11D16D1C00BF09
:103910002E78302E01DB392E00DD08E06D1C0A21E7
:10392000139848433146303940181390F0E700BFF0
:103930002E7800BF6C2E01D0682E02D16D1C2E781F
:1039400000E000E0F6E700BF702E68D008DC252E0E
:1039500077D0582E38D0632E09D0642E76D114E05B
:10396000732E40D0752E1FD0782E6FD12BE021689A
:10397000081D2060086814901498C0B2019015A822
:10398000019900F099FD62E064E02168081D206063
:10399000086814901298019700900A2215A8139BAA
:1039A000149900F073FC52E02168081D206008683B
:1039B00014901298019700900A2215A8139B14994D
:1039C00000F0ECFC43E000BF2168081D206008689F
:1039D0001490129801970090102215A8139B149927
:1039E00000F0DCFC33E02168081D206008680190CD
:1039F0000198002801D125A0019000BF0198067808
:103A00000198401C0190002E00D106E0314615A817
:103A100000F052FD18980028F0DA00BF17E0216886
:103A2000081D206008681490002008210B46102211
:103A30000091019015A8149900F0B0FC07E000E097
:103A400004E0252115A800F037FD00E000BF00BF0D
:103A50006D1C03E0314615A800F02EFD18980028D3
:103A600000DB10E700BF189800280BDD179800282E
:103A700004D002A9179A1A98FFF77EFE1799189892
:103A80004018189018981DB0F0BD0000284E554CF5
:103A90004C29000070470000FEB504460D4616464E
:103AA00000BF314653480068FCF7F5FB401E216813
:103AB000C86231464F480068FCF7EDFB401EE060ED
:103AC00000BF002D16D13046FCF7B4FDFF2189055B
:103AD000009000F057FE029046480068FCF7AAFDEF
:103AE00001900299FCF7B2FC0746FCF75FFD2168E4
:103AF000486379E0042D16D13046FCF79BFDFF2189
:103B00008905009000F03EFE07463A480068FCF741
:103B100091FD39460190FCF799FC0290FCF746FDB7
:103B20002168886360E0082D16D13046FCF782FDDD
:103B3000FF218905009000F025FE02902D480068C5
:103B4000FCF778FD01900299FCF780FC0746FCF732
:103B50002DFD2168C86347E00C2D16D13046FCF7D7
:103B600069FDFF218905009000F00CFE02902148BC
:103B70000068FCF75FFD01900299FCF767FC0746BF
:103B8000FCF714FD216808642EE0102D16D1304694
:103B9000FCF750FDFF218905009000F0F3FD029035
:103BA00014480068FCF746FD01900299FCF74EFCB2
:103BB0000746FCF7FBFC2168886515E03046FCF7FA
:103BC00039FDFF218905009000F0DCFD02900948D5
:103BD0000068FCF72FFD01900299FCF737FC0746BF
:103BE000FCF7E4FC2168C86529462046FFF700FA87
:103BF000FEBD00004000002010B5FDF745FE10BDE1
:103C000000B593B0382105A8FCF743FB00200190D4
:103C100002900390049001204002FDF7C5FE0220AF
:103C20000590C00108900020099040200A900220D1
:103C30000C9002210D9100210E9108210F91010499
:103C400010910321490611910107129105A8FEF771
:103C500073F9002801D0FCF713FF07200190022020
:103C6000029000200390012080030490022101A80B
:103C7000FEF706F8002801D0FCF702FF13B000BDE4
:103C80007047000010B50248FEF720FF10BD00008D
:103C90008801002010B50248FEF718FF10BD000093
:103CA0008801002010B50248FEF710FF10BD00008B
:103CB000D401002010B50268254B984206D001239C
:103CC0009B07984202D0234B984205D1702413469B
:103CD000A3431A464B681A431D4B98420FD0012349
:103CE0009B0798420BD01B4B984208D01A4B984226
:103CF00005D01A4B984202D0194B984206D10324A2
:103D000024021346A3431A46CB681A438024134661
:103D1000A3434C6923431A4602608B68C3620B6855
:103D200083620B4B984205D00C4B984202D00C4B4F
:103D3000984201D10B690363012343610369DB07E7
:103D4000DB0F002B03D003695B085B00036110BD30
:103D5000002C0140000400400020004000440140CD
:103D60000048014070B5CD06ED0E0124AC4023465D
:103D7000046A9C430462046ACE06F60E1546B540FA
:103D80002C43046270BD000070B5026A056A6D08BC
:103D90006D000562436884691E4D2C40A408A40090
:103DA0000D682C4302261546B5432A468D682A43E2
:103DB000194DA84200D107E0184DA84200D103E0F8
:103DC000174DA8420AD100BF08261546B5432A461A
:103DD000CD682A4304261546B5432A460E4DA8420F
:103DE00005D00E4DA84202D00D4DA8420CD1FF26A1
:103DF00001361D46B5432B4676001D46B5432B467E
:103E00004D692B438D692B43436084614D68456345
:103E1000026270BD8FFFFEFF002C01400044014094
:103E20000048014070B5026A056A1026B543056274
:103E300043688469224D2C40032636022546B5434B
:103E40002C460D682D022C4320261546B5432A46E4
:103E50008D682D012A431B4DA84200D107E01A4D61
:103E6000A84200D100BF194DA8420BD10AE080261C
:103E70001546B5432A46CD682D012A4340261546EE
:103E8000B5432A460F4DA84205D00F4DA84202D097
:103E90000E4DA8420ED10126B6021D46B5432B4653
:103EA00076001D46B5432B464D69AD002B438D6909
:103EB000AD002B43436084614D688563026270BD31
:103EC000FF8FFFFE002C01400044014000480140EC
:103ED00070B5026A056AFF260136B543056243687C
:103EE000C469214D2C40A408A4000D682C43760021
:103EF0001546B5432A468D682D022A431B4DA8421C
:103F000000D107E01A4DA84200D100BF194DA842C8
:103F10000CD10BE00126F6021546B5432A46CD68C2
:103F20002D022A4376101546B5432A460F4DA84266
:103F300005D00F4DA84202D00E4DA8420ED1012649
:103F400036031D46B5432B4676001D46B5432B462A
:103F50004D692D012B438D692D012B434360C461B5
:103F60004D68C563026270BD8FFFFEFF002C0140EB
:103F7000004401400048014070B5036A056A01260B
:103F80003603B54305624468C269144D2A400326CE
:103F900036021546B5432A460D682D022A430126EE
:103FA00076031D46B5432B468D682D032B430C4DE0
:103FB000A84205D00B4DA84202D00B4DA84207D114
:103FC0000126B6032546B5432C464D69AD012C4369
:103FD0004460C2614D680564036270BDFF8FFFFEDF
:103FE000002C0140004401400048014070B5026AC5
:103FF000056A01263604B54305624368446D114DD8
:104000002C400D682C4376001546B5432A460D8991
:104010002D042A430C4DA84205D00C4DA84202D0D5
:104020000B4DA84207D1012636041D46B5432B4649
:104030004D692D022B43436044654D6885650262DE
:1040400070BD00008FFFFEFF002C014000440140C6
:104050000048014070B5026A056A01263605B5437D
:1040600005624368446D114D2C400D682D022C43B0
:1040700076001546B5432A460D892D052A430C4D79
:10408000A84205D00B4DA84202D00B4DA84207D143
:104090000126B6041D46B5432B464D69AD022B43A0
:1040A000436044654D68C565026270BDFF8FFFFEC9
:1040B000002C01400044014000480140F0B50C468E
:1040C000056A066A7608760006628169134EB04278
:1040D00006D00126B607B04202D0114EB04201D13F
:1040E000012600E00026002E05D0890889000E4632
:1040F0001643314601E001263143F0260F46B7430F
:1041000039461E01F0273E4031430A262F46B74369
:104110003D462640354381610562F0BD002C0140DB
:1041200000040040F0B50C46056A066A1027BE433D
:1041300006628169032636020F46B74339461602E6
:1041400031430F2636030F46B74339461E030F2768
:104150003F033E403143A0262F46B7433D4626014C
:10416000A0273E40354381610562F0BDF0B50C46A5
:10417000056A066AFF270137BE430662C1698908DE
:1041800089000E4616433146F0260F46B74339469E
:104190001E01F0273E403143052676022F46B743E5
:1041A0003D46260205277F023E403543C161056238
:1041B000F0BDF0B50C46056A066A01273F03BE4311
:1041C0000662C169032636020F46B7433946160216
:1041D00031430F2636030F46B74339461E030F27D8
:1041E0003F033E403143052676032F46B7433D4605
:1041F000260305277F033E403543C1610562F0BDBC
:1042000070B5144CA8212046FCF743F80320206128
:10421000606111A0A0611349E1610121890221625D
:104220000021A1626162E1620BA020660E49616615
:104230001021A16600212167E1666167002505E084
:104240000F20401B0949085C60556D1C102DF7D3E9
:1042500070BD0000200200205465726D696E616CB3
:1042600000000000C8020020C8060020BC4800086A
:1042700010B501460A69CB689A4204D88C68641E5E
:10428000E41AA01801E0D41A601E10BDFFB585B075
:1042900006460F460F9D0E9C002F01DA784200E083
:1042A000384603900120049007E007990398FBF734
:1042B000FCFF03900498401C0490079903988842DF
:1042C000F3DA04990898884201D908980490002CE0
:1042D00006D0002F03DB04202840042800D1641EF0
:1042E00002202840002802D00898002815D0E807AE
:1042F000C00F002811D1002C0FD008E0641E20212F
:10430000304600F0D9F8F068002800DA04E0002C0C
:1043100002D00498A042F1D300BFF06800283ADB35
:10432000002F05DA7F422D21304600F0C5F807E066
:1043300004202840042803D12B21304600F0BCF88B
:10434000F068002827DB02202840022818D1E8075F
:10435000C00F002814D10898002811D1002C0FD0CC
:1043600008E0641E3021304600F0A6F8F06800280E
:1043700000DA04E0002C02D00498A042F1D300BF80
:10438000F068002807DB0195009439463046089B09
:10439000079A00F003F809B0F0BD0000FFB585B042
:1043A000064617461D460E9C069802900120039073
:1043B000019007E039460298FBF76DFF02900198E3
:1043C000401C01900298B842F4D20198854200D96D
:1043D00001950F98C007C00F00281DD1002C1BD0DD
:1043E00002210F980840022804D1002D02D130206C
:1043F000009001E02020009008E0641E3046009903
:1044000000F05AF8F068002800DA04E0002C02D02E
:104410000198A042F1D300BFF068002848DB0FE00C
:10442000012D01D96D1E08E003990698FBF733FFB3
:1044300004900498B84200D203E0039878430390B4
:10444000EEE700BF00BF03990698FBF724FF049036
:104450000399049848430699081A0690154A049847
:10446000115C304600F028F8F068002800DA07E018
:1044700039460398FBF70FFF039003980028E2D119
:1044800000BF0F98C007C00F002811D0002C0FD01C
:1044900008E0641E2021304600F00EF8F068002885
:1044A00000DA04E0002C02D00198A042F1D300BF52
:1044B00009B0F0BDCD48000870B504460E46A568A9
:1044C000681C6168814206D320684655681CA0605C
:1044D000E068401CE0606168A06888420DD1A26875
:1044E00021682069FFF748F9A168884203D00020BD
:1044F000C043E06001E00020A06070BDF7B584B06B
:104500000446174600200390E56800BF206902902A
:104510000298A84203D90298401B461E04E0A168F5
:104520000298281A401C0E1AA068401BB04201D9FC
:10453000304601E0A068401B0646BE4201D230462C
:1045400000E03846064660684019019032460599F9
:104550000198FBF73FFE0398801903900598801996
:104560000590BF1BAD19A068A84200D10025E560E9
:10457000002FCBD1039807B0F0BDF7B582B0044649
:104580001546E668A068871BAF420AD960688019A3
:1045900000902A4603990098FBF71CFE7019E06012
:1045A00014E00197606880190090019A03990098BF
:1045B000FBF710FEE81B0190606800900398C1199A
:1045C000019A0098FBF706FE0198E06005B0F0BD87
:1045D00010B5002819DB1A4A03231B02D2188308DE
:1045E0009B00D2588307DC0EFF23A3409A438B071E
:1045F0001B0E8407E40EA3401A43114B032424022C
:104600001B198408A4001A5118E00E4A03071B0F57
:10461000083B9B089B00D2588307DC0EFF23A34076
:104620009A438B071B0E8407E40EA3401A43054BE5
:104630000407240F083CA408A4001A5110BD000070
:1046400000E100E01CED00E0FDF72AF9FFF7D8FAE1
:10465000FEF722FFFEF706FFFEF7B2FEFEF78CFF25
:10466000FEF7F4FF16220D490D48FCF74FFE002817
:1046700001D0FCF705FA00210A48FEF7B9FC042135
:104680000848FEF759F9FFF773F807A10020FFF774
:10469000D9F801E0FCF770F9FCE7000044000020C5
:1046A000C8000020D401002048656C6C6F20776F33
:1046B000726C64202100000070B501250C002D05EE
:1046C0001C4310D4EC4206D4AC420AD4994200D028
:1046D00070BD904270BDE94217D4EB4215D49942A7
:1046E00070BD894270BDEC4206D5AC42F9D58B4213
:1046F00000D070BD824270BD6D004C00EC4204D20F
:104700005C00EC4201D28B4270BD034C30B4FBF72D
:1047100095FF30BC70BD00BF1900160470B50125AF
:104720001C002D050C4310D4EC4206D4AC420AD434
:104730008B4200D070BD824270BDEB4217D4E9427B
:1047400015D48B4270BD9B4270BDEC4206D5AC4285
:10475000F9D5994200D070BD904270BD6D005C00EB
:10476000EC4204D24C00EC4201D2994270BD0FB42D
:10477000034C0CBC03BC30B4FBF760FF30BC70BD15
:104780001900160470B5420064414B005C41120EE2
:1047900039D01B0E38D0FF2A3CD0FF2B3AD0400234
:1047A0004902400A490A060045184E43000A090A10
:1047B000D2184843ED017F3A0104731A4019190CCD
:1047C0004318990F04D001215B0849075B1A521C5A
:1047D000D80904D3401CF50301D19D0607D0FF2A58
:1047E00008D2D50506D0E4072043401970BD012545
:1047F000A843F4E7002A01DCE00770BD2402FF2093
:104800002043C00570BD1B0EFF2A03D0FF2B01D033
:10481000E00770BDFF2645003606B54206D84D00BC
:10482000B54203D8D218FF2A00D0E7E7004870BD90
:104830000000C07F081C3044580008001000200011
:1048400040008000081C30445800000000000000B8
:104850000000000000000000000000000000000058
:104860000000000000000000000000000100000047
:104870000200000003000000040000000600000029
:104880000700000008000000090000000000000010
:104890000000000000000000000000000100000017
:1048A0000200000003000000040000003031323339
:1048B000343536373839414243444546000000001C
:1048C000000054545220524547474553003031327E
:1048D0003334353637383941424344454681828343
:1048E0008485868788898B8C8D8E8F9192939596FF
:1048F00097999A9C9D9FA0A2A3A5A7A8AAACAEB089
:10490000B2B3B5B7B9BCBEC0C2C5C7C9CCCED1D48D
:10491000D7D9DCDFE2E6E9ECF0F3F7FAFE000000BD
:104920004049000800000020440000000401000885
:104930008449000844000020F40C00002001000815
:104940000000000000000050000000500000005077
:1049500000000050000000500000000000000000B7
:104960000000000000000000000000000000000047
:104970000000000000000000040000000100000032
:044980000024F4001B
:04000005080000C12E
:00000001FF
